:020000022000DC
:106000000000012019620200016202000362020026
:10601000056202000762020009620200000000003F
:106020000000000000000000000000000B62020001
:106030000D620200000000000F6202001162020007
:106040003D23030013620200A1300300136202002B
:1060500013620200136202009D2F0300136202000C
:106060001362020013620200136202001362020054
:106070001362020013620200136202001362020044
:1060800013620200194A0300136202001362020045
:10609000136202001362020011A7030013620200E0
:1060A0001362020013620200136202001362020014
:1060B00013620200136202000000000000000000F2
:1060C00013620200136202001362020013620200F4
:1060D000136202001362020013620200000000005B
:1060E00000000000000000000000000000000000B0
:1060F00000000000000000000000000000000000A0
:10610000000000000000000000000000000000008F
:10611000000000000000000000000000000000007F
:10612000000000000000000000000000000000006F
:10613000000000000000000000000000000000005F
:10614000000000000000000000000000000000004F
:10615000000000000000000000000000000000003F
:10616000000000000000000000000000000000002F
:10617000000000000000000000000000000000001F
:10618000000000000000000000000000000000000F
:1061900000000000000000000000000000000000FF
:1061A00000000000000000000000000000000000EF
:1061B00000000000000000000000000000000000DF
:1061C00000000000000000000000000000000000CF
:1061D00000000000000000000000000000000000BF
:1061E00000000000000000000000000000000000AF
:1061F000000000000000000000000000000000009F
:10620000FEE7FEE7FEE7FEE7FEE7FEE7FEE7FEE766
:10621000FEE7FEE700F002B8FFF7FCBF0F484FF0C3
:106220000701884385460E4880470E48016841F4BF
:1062300070010160BFF34F8FBFF36F8F00F01AB88A
:1062400009480A490A4A884207D0521A05D00378F9
:1062500001300B700131013AF9D170470000012083
:106260008987020088ED00E078B0030060220020FA
:1062700074220020344935480A1A02D0072291437B
:106280008D46334933480A1A06D00722914381F3D9
:106290000988022282F314882F483049304A00F0DE
:1062A00041F830483049314A00F03CF83048314933
:1062B000314A00F037F831483149324A00F032F8BB
:1062C00031483249324A00F02DF832483249334AD7
:1062D00000F028F832483349334A00F023F83348B5
:1062E0003349002200F029F832483349002200F0F7
:1062F00024F832483249091A14F0F4FD314A904723
:106300001F482049884205D00268043003B49047F2
:1063100003BCF7E700208646EC46002000212A4A0D
:106320009047FEE7884207D0521A05D00378013023
:106330000B700131013AF9D17047884202D00270E6
:106340000130FAE7704700000000012000E0002063
:10635000000001200000012000EC03007422002056
:1063600018240020CC630200CC630200F8AE0300C6
:1063700000EC030074220020742200208CB0030083
:106380008CB003008CB003008CB003008CB0030011
:106390008CB003008CB003008CB00300FDEB030055
:1063A000A4ED030018240020182400201824002045
:1063B000983800209838002098380020983800201D
:0C63C00098580020416202002D7002007D
:1063CC0076DF704700BF18467ADF704700BF18466B
:1063DC007CDF704700BF18468FDF704700BF184640
:1063EC0000B583B00190019B1B68184600F032F891
:1063FC000346002B04D105494FF4F67000F070F9F8
:10640C004FF0A043184603B05DF804FB8CB00300BA
:10641C0000B585B0019001AB1846FFF7E1FF039082
:10642C00039BD3F804350293029BDA43019B0121B1
:10643C0001FA03F31A40039BC3F80825019B0122C0
:10644C009A40029B1A40039BC3F80C2500BF05B071
:10645C005DF804FB84B00190019B5B09029300235F
:10646C000393029B002B03D14FF0FF33039300BF28
:10647C00019B03F01F030193039A019B22FA03F380
:10648C0003F00103002B14BF01230023DBB21846D9
:10649C0004B0704782B003468DF807304FF080424D
:1064AC009DF80730C2F8203500BF02B070470000DD
:1064BC0000B583B003468DF807309DF80730022BEA
:1064CC0018D10F4A0F4BD31ADB081B0443F00303FC
:1064DC000D49184613F002F800BF094A094BD31AAC
:1064EC00DB081B0443F003030849184612F0F6FFBF
:1064FC00012300E00123184603B05DF804FB00BF44
:10650C0084AF03005CAF0300BCB00300ECB003002D
:10651C0000B583B0034600918DF807309DF8073025
:10652C00032B05D1A920FFF7B5FF002012F0C4F909
:10653C0000BF03B05DF804FB00B583B001902C22C2
:10654C000021019814F074FC019B01221A71019B2B
:10655C004FF496721A61019B44F250625A6100BF6B
:10656C0003B05DF804FB000000B585B00346009154
:10657C00ADF80630BDF8063013211846FFF720FFA2
:10658C000390039B002B0CD0084A094BD31ADB0851
:10659C001B0443F00200BDF80620039B054912F0D2
:1065AC00BCFF00BF05B05DF804FB00BF84AF030067
:1065BC005CAF03001CB1030000B591B003468DF82D
:1065CC0007309DF80730032B62D801A252F823F054
:1065DC00ED6502003F660200576602006F6602001E
:1065EC00344A354BD31ADB081B0443F003033349FD
:1065FC00184612F073FF03AB1846FFF79DFF0123FB
:10660C008DF80C3003AB19462D4803F0B6FC002175
:10661C002C4804F09BFA0E90264A274BD31ADB0821
:10662C001B0443F003030E9A2749184612F064FF2B
:10663C003BE0204A204BD31ADB081B0443F0030336
:10664C002249184612F04AFF2FE01A4A1A4BD31A65
:10665C00DB081B0443F001031D49184612F03EFFF2
:10666C0023E0144A144BD31ADB081B0443F0010338
:10667C001849184612F032FF00230F930F9B002B82
:10668C0012D0154A40F213110F980DF043F80BE09D
:10669C00084A094BD31ADB081B0443F001030F49CA
:1066AC00184612F01BFF00E000BF00BF11B05DF8F0
:1066BC0004FB00BF84AF03005CAF030060B10300B8
:1066CC00382400207565020090B10300A8B10300C6
:1066DC00CCB1030008B2030038B2030088B2030047
:1066EC0000B583B003460091ADF80630BDF8063016
:1066FC00009A194603480DF00DF800BF03B05DF881
:10670C0004FB00BFEFBEADDE00B583B00190019875
:10671C0008F02AFE019809F0C9F9019808F088FEE2
:10672C0000BF03B05DF804FB00B583B001901120ED
:10673C00FFF76EFE1220FFF76BFE074A074BD31ACA
:10674C00DB081B0443F003030549184612F0C6FE90
:10675C0000BF03B05DF804FB84AF03005CAF030023
:10676C00B0B2030000B585B00DF084FB0390039B21
:10677C000293029B002B05D00D4A40F2491102985E
:10678C000CF0C8FF0B4A01210B480DF0B1FB039034
:10679C00039B0193019B002B05D0054A4FF4A97173
:1067AC0001980CF0B7FF00BF05B05DF804FB00BF0B
:1067BC0038B203003567020000B3030000B587B0A0
:1067CC009DF80030012262F303038DF800309DF830
:1067DC000030012262F307138DF800306B46112252
:1067EC001B491846FFF7F4FD0590059B0493049B89
:1067FC00002B05D0174A4FF4B37104980CF08AFFA4
:10680C0001AB08220021184614F012FB5023ADF8FE
:10681C000430A023ADF806300023ADF808304FF457
:10682C00C873ADF80A3001AB1846FFF7CDFD0590E3
:10683C00059B0393039B002B05D0064A4FF4BA71BA
:10684C0003980CF067FF00BF07B05DF804FB00BFB6
:10685C00B8B2030038B2030000B583B00190054A0A
:10686C0040F2811101980CF055FF00BF03B05DF8A8
:10687C0004FB00BF38B2030000B587B000230293BD
:10688C0000230193144B029302AB1946134806F0F4
:10689C0093FB0590059B0493049B002B05D0104A99
:1068AC0040F2AB1104980CF035FF0E4B019301AB89
:1068BC0018460BF007F80590059B0393039B002BE0
:1068CC0005D0074A4FF4D87103980CF023FF00BF92
:1068DC0007B05DF804FB00BF656802002C240020A3
:1068EC0038B20300C565020000B585B00190019B6C
:1068FC001B78002B11D10B4B1B883B211846FFF743
:10690C005FFD0390039B0293029B002B05D0064A6C
:10691C0040F2DD1102980CF0FDFE00BF05B05DF8F1
:10692C0004FB00BF9822002038B2030000B583B0EE
:10693C000190054A4FF4F47101980CF0EBFE00BF86
:10694C0003B05DF804FB00BF38B2030000B58BB098
:10695C0001AB1C220021184614F06AFA00230193A3
:10696C004FF4A03302934FF4F023039303238DF8D9
:10697C0010300023ADF8123000238DF814300C4B7E
:10698C0006930C4B079301AB184603F051FC09908E
:10699C00099B0893089B002B05D0074A40F2FF1176
:1069AC0008980CF0B7FE00BF0BB05DF804FB00BFFD
:1069BC00F56802003969020038B2030000B583B0F3
:1069CC000B4B00224FF4804118460DF0CBFA01908E
:1069DC00019B0093009B002B05D0064A40F20A2134
:1069EC0000980CF097FE00BF03B05DF804FB00BFED
:1069FC007822002038B2030000B585B0002001F0E9
:106A0C009FF90390039B0293029B002B05D0134A22
:106A1C0040F2162102980CF07DFE01F01AFB039057
:106A2C00039B0193019B002B05D00C4A40F21A21C9
:106A3C0001980CF06FFE13F0D9FD0390039B0093AB
:106A4C00009B002B05D0054A40F21F2100980CF04A
:106A5C0061FE00BF05B05DF804FB00BF38B2030057
:106A6C0000B585B003468DF807309DF80730002B34
:106A7C0011D0032B12D1022001F062F90390039B79
:106A8C000293029B002B0BD0084A40F23121029852
:106A9C000CF040FE04E0FFF7AFFF02E000BF00E0A7
:106AAC0000BF00BF05B05DF804FB00BF38B20300A7
:106ABC0000B58BB00190009100230993019B1B88BA
:106ACC00562B60D0562B71DC3B2B49D03B2B6DDC0D
:106ADC00212B2BD0212B69DC102B01D0112B65E045
:106AEC00072001F02DF90990099B0593059B002BBC
:106AFC0005D0354A40F24F2105980CF00BFE019B56
:106B0C009A88324B1A80314B1B881946304806F054
:106B1C0075FA0990099B0493049B002B48D02A4AD0
:106B2C0040F2522104980CF0F5FD41E000238DF861
:106B3C000C3000238DF80D30019B9B8803AA114665
:106B4C001846FFF749FC0990099B0693069B002BFE
:106B5C0030D01D4A40F25E2106980CF0DBFD29E096
:106B6C00019B9B8813211846FFF72AFC0990099B6F
:106B7C000893089B002B1FD0134A40F267210898FA
:106B8C000CF0C8FD18E0019B9B8813211846FFF7F9
:106B9C0017FC0990099B0793079B002B0ED00A4A00
:106BAC0040F26F2107980CF0B5FD07E000BF06E03E
:106BBC0000BF04E000BF02E000BF00E000BF00BF68
:106BCC000BB05DF804FB00BF38B203009822002024
:106BDC002C24002000B587B013F0B4FC0590059B65
:106BEC000493049B002B05D0164A40F28221049892
:106BFC000CF090FD0023019301AB1946012013F01A
:106C0C00B7FD0590059B0393039B002B05D00D4A04
:106C1C004FF4227103980CF07DFD01AB184613F074
:106C2C009BFE0590059B0293029B002B05D0054A09
:106C3C004FF4237102980CF06DFD00BF07B05DF8A6
:106C4C0004FB00BF38B2030000B587B007F070FF3B
:106C5C000590059B0493049B002B05D0384A40F209
:106C6C009A2104980CF056FD6B460522002118461B
:106C7C0014F0DEF89DF8003043F001038DF800307D
:106C8C009DF800306FF341038DF800309DF8003013
:106C9C006FF382038DF800309DF800306FF3C3035F
:106CAC008DF800309DF80030032262F306138DF846
:106CBC0000309DF800306FF3C7138DF800300723B8
:106CCC008DF8013010238DF802309DF8033043F01D
:106CDC0001038DF803309DF8033043F002038DF867
:106CEC0003309DF8043043F001038DF804309DF817
:106CFC00043043F002038DF804306B46184608F05C
:106D0C0001F80590059B0393039B002B05D00C4ABF
:106D1C0040F2AD2103980CF0FDFC0A4807F0CAFFC5
:106D2C000590059B0293029B002B05D0044A4FF45F
:106D3C002C7102980CF0EEFC00BF07B05DF804FB60
:106D4C0038B203001567020000B583B00E4A0F4B32
:106D5C00D31ADB081B0443F003030D49184612F049
:106D6C00BDFB08F045F80190019B0093009B002BA4
:106D7C0005D0084A40F2BD2100980CF0CBFC00BFB6
:106D8C0003B05DF804FB00BF84AF03005CAF0300ED
:106D9C00CCB2030038B2030000B587B003468DF8BF
:106DAC0007309DF807300A2B06D00A2B36DC042B53
:106DBC0005D0072B19D031E0FFF71EFE33E01C4B3A
:106DCC001B8813211846FFF7FBFA0590059B082B2F
:106DDC0026D0059B0393039B002B21D0154A4FF41F
:106DEC00357103980CF096FC1AE0114B1B884FF68A
:106DFC00FF72934216D1104803F087F80590059B5B
:106E0C00082B0FD0059B0493049B002B0AD0094A36
:106E1C0040F2DE2104980CF07DFC03E000BF02E0A0
:106E2C0000BF00E000BF00BF07B05DF804FB00BF6F
:106E3C009822002038B203003824002000B5AFB0EF
:106E4C0001ABAC220021184613F0F2FF02238DF89F
:106E5C00043001238DF8063006238DF8073001230A
:106E6C00ADF81430104B069301AB78331846FFF78E
:106E7C0063FB0E4B2A9301AB19460D4802F02AFE18
:106E8C002D902D9B2C932C9B002B05D0094A40F266
:106E9C00FD212C980CF03EFC0121054802F00DFE62
:106EAC0000BF2FB05DF804FB9C2200206D6A02002D
:106EBC003824002038B2030000B587B00190174980
:106ECC00032000F057FF0590059B0493049B002BB7
:106EDC0005D0134A40F20D3104980CF01BFC0DF157
:106EEC000B031946002001F017F90590059B03933D
:106EFC00039B002B05D00A4A4FF4447103980CF005
:106F0C0009FC9DF80B30022B0CBF01230023DAB2D5
:106F1C00019B1A7000BF07B05DF804FBA56D020061
:106F2C0038B2030000B583B04FF48041002011F05B
:106F3C00FFFF0190019B0093009B002B05D0064A9C
:106F4C0040F21B3100980CF0E5FB11F087FF00BFFD
:106F5C0003B05DF804FB00BF38B2030000B583B08A
:106F6C000021094805F044FF0190019B0093009B10
:106F7C00002B05D0054A40F2273100980CF0CAFBD3
:106F8C0000BF03B05DF804FB1824002038B20300E6
:106F9C0000B585B003468DF807309DF80730002BFF
:106FAC0002D0FFF7D1FE0FE00321094802F06AFE80
:106FBC000390039B0293029B002B05D0054A40F2E1
:106FCC00373102980CF0A6FB00BF05B05DF804FB4E
:106FDC003824002038B2030000B583B011F0E6FB72
:106FEC000190019B0093009B002B05D0044A4FF4A9
:106FFC00507100980CF08EFB00BF03B05DF804FBE1
:10700C0038B2030008B512F0F3FA034683F001031B
:10701C00DBB2002B01D011F0E1FB00BF08BD00007A
:10702C0000B585B0FFF77EFF0AF070FD0390039B5F
:10703C000293029B002B05D0184A4FF4577102980B
:10704C000CF068FBFFF78EFBFFF7C6FF0DF1070393
:10705C001846FFF731FFFFF7BDFDFFF7F5FDFFF712
:10706C00ADFBFFF77BFFFFF7E9FEFFF705FCFFF732
:10707C006DFC0B4A0B4BD31ADB081B0443F00303C8
:10708C000949184612F02AFAFFF798FC9DF80730C8
:10709C001846FFF77DFFFFF7B5FFFCE738B203009A
:1070AC0084AF03005CAF0300DCB2030000B583B017
:1070BC000190019B1B68184600F011F90346002B48
:1070CC0004D105494FF4F670FFF70AFB4FF0A043CB
:1070DC00184603B05DF804FB04B3030000B585B09B
:1070EC000190084611461A4603468DF803300B46AC
:1070FC008DF8023013468DF8013001AB1846FFF7BE
:10710C00D5FF03909DF803209DF802305B001A43D5
:10711C009DF801309B001A439DF818301B0242EA7F
:10712C0003019DF81C301B04019A1943039B02F5C3
:10713C00E07243F8221000BF05B05DF804FB00B507
:10714C0085B00390002301930023009300230122B8
:10715C0001210398FFF7C2FF00BF05B05DF804FBE7
:10716C0000B585B003900B468DF80B309DF80B30B5
:10717C000022019200220092002200210398FFF7C6
:10718C00ADFF00BF05B05DF804FB00B585B0019004
:10719C0001AB1846FFF78AFF0390019B012202FA0C
:1071AC0003F31946039800F086F800BF05B05DF8AC
:1071BC0004FB00B585B0019001AB1846FFF776FFD4
:1071CC000390019B012202FA03F31946039800F085
:1071DC007CF800BF05B05DF804FB00B585B00190EC
:1071EC0001AB1846FFF762FF0390039BD3F80435FD
:1071FC000293029BDA43019B012101FA03F31A402B
:10720C00039BC3F80825019B01229A40029B1A405C
:10721C00039BC3F80C2500BF05B05DF804FB00B55B
:10722C0083B001900091009B002B03D10198FFF7D4
:10723C00C0FF02E00198FFF7A8FF00BF03B05DF8A4
:10724C0004FB00B585B0019001AB1846FFF72EFF8B
:10725C000390039800F01FF80246019B22FA03F3F7
:10726C0003F00103184605B05DF804FB00B585B0CA
:10727C00019001AB1846FFF719FF0390039800F03B
:10728C0012F80246019B22FA03F303F0010318469D
:10729C0005B05DF804FB82B00190019BD3F810356A
:1072AC00184602B0704782B00190019BD3F80435A8
:1072BC00184602B0704782B001900091019B009A71
:1072CC00C3F8082500BF02B0704782B0019000914E
:1072DC00019B009AC3F80C2500BF02B0704784B024
:1072EC000190019B5B09029300230393029B002BEB
:1072FC0003D14FF0FF33039300BF019B03F01F0337
:10730C000193039A019B22FA03F303F00103002B70
:10731C0014BF01230023DBB2184604B070470000F1
:10732C0000B585B00190019B032B03D911493A207C
:10733C00FFF7D6F9104A019B13441B781846FFF748
:10734C0095FF0346002B14BF012300238DF80F304B
:10735C009DF80F30002B14BF01230023DBB283F008
:10736C000103DBB203F00103DBB2184605B05DF894
:10737C0004FB00BF34B303006CB3030000B583B04F
:10738C000190019B032B03D907494120FFF7A8F972
:10739C00064A019B13441B7800211846FFF73FFF58
:1073AC0000BF03B05DF804FB34B303006CB30300FF
:1073BC0000B583B00190019B032B03D907494720EB
:1073CC00FFF78EF9064A019B13441B7801211846DE
:1073DC00FFF725FF00BF03B05DF804FB34B30300D7
:1073EC006CB3030000B583B00023019305E0019852
:1073FC00FFF7DEFF019B01330193019B032BF6D9B1
:10740C0000BF00BF03B05DF804FB00B583B00023E0
:10741C00019305E00198FFF7B1FF019B0133019344
:10742C00019B032BF6D900BF00BF03B05DF804FB32
:10743C0000B583B00190019B032B03D907495F2052
:10744C00FFF74EF9064A019B13441B781846FFF7C9
:10745C00C4FE00BF03B05DF804FB00BF34B30300EF
:10746C006CB3030000B583B00023019309E0094A13
:10747C00019B13441B781846FFF761FE019B0133F7
:10748C000193019B032BF2D9FFF7ACFF00BF03B0B4
:10749C005DF804FB6CB3030000B585B00190019B53
:1074AC00032B03D91149AC20FFF71AF9104A019BA1
:1074BC0013441B781846FFF7C4FE0346002B14BF79
:1074CC00012300238DF80F309DF80F30002B14BFD3
:1074DC0001230023DBB283F00103DBB203F00103D1
:1074EC00DBB2184605B05DF804FB00BF34B30300F3
:1074FC0070B3030000B583B0002301930AE0094A7E
:10750C00019B13441B7803211846FFF729FE019BAE
:10751C0001330193019B032BF1D900BF00BF03B0D2
:10752C005DF804FB70B3030084B001904FF0FF339F
:10753C000293002303930DE00A4A039B13441B7828
:10754C001A46019B934202D1039B029305E0039BD5
:10755C0001330393039B032BEED9029B184604B013
:10756C00704700BF70B3030000B583B00190019B5E
:10757C00032B03D90549CB20FFF7B2F8044A019B32
:10758C0013441B78184603B05DF804FB34B30300B6
:10759C0070B3030000B583B00190019B03F00103AD
:1075AC00002B01D0FFF75EFF019B03F00203002BC1
:1075BC0001D0FFF79FFF00BF03B05DF804FB000094
:1075CC0000B583B00190019B1B68184600F03EF893
:1075DC000346002B04D105494FF4F670FFF780F8F1
:1075EC004FF0A043184603B05DF804FB74B30300DE
:1075FC0000B585B001900B468DF8033001AB1846F1
:10760C00FFF7DEFF0390019A039B02F5E07253F83B
:10761C002230019A23F44031039B02F5E07243F8C7
:10762C002210019A039B02F5E07253F822309DF868
:10763C00032012041146019A1943039B02F5E072D0
:10764C0043F8221000BF05B05DF804FB84B0019034
:10765C00019B5B09029300230393029B002B03D134
:10766C004FF0FF33039300BF019B03F01F03019303
:10767C00039A019B22FA03F303F00103002B14BFBE
:10768C0001230023DBB2184604B0704700B583B069
:10769C000190019B032B04D80198FFF7FDFE0346D4
:1076AC0000E00023184603B05DF804FB00B587B07A
:1076BC0003460A468DF8073013468DF80630002332
:1076CC008DF81730002304939DF807301846FFF708
:1076DC002BFF0490049B032B62D89DF80630022BE1
:1076EC0052D0022B5CDC002B31D0012B58D1354908
:1076FC00049A13465B0013440B441B788DF8173027
:10770C003049049A13465B0013440B4401331B7835
:10771C00002B0ED02C4B2D4A4FF4804118460CF008
:10772C0021FC0390039B002B03D1284A9DF80730C2
:10773C0013702449049A13465B0013440B44023320
:10774C001978234A049B13440A461A7028E01E4BEE
:10775C0018460CF05FFC1E4A049B13441978194818
:10776C00049A13465B001344034402331B7899427A
:10777C0015D11449049A13465B0013440B4402338D
:10778C001B788DF817300AE00E49049A13465B00FB
:10779C0013440B4401331B788DF8173000E000BF05
:1077AC009DF81730002B09D00A4B1B68002B05D015
:1077BC00084B1B689DF817201046984700BF07B070
:1077CC005DF804FB7C280020E022002088280020A3
:1077DC008C2800207828002000B583B00190019BF4
:1077EC001B7802211846FFF761FF00BF03B05DF85C
:1077FC0004FB000000B583B00C4B1B78002B0FD0A2
:10780C000023019308E0019B022B02D00198FFF7A3
:10781C00CFFD019B01330193019B032BF3D901E0B5
:10782C00FFF7E0FD00BF03B05DF804FB74280020F7
:10783C002DE9D04F92B003468DF83F3000231193C1
:10784C0000231093CC4B1B78002B04D0CA4A002386
:10785C001370FFF7CFFF9DF83F30172B00F23F82DC
:10786C0001A252F823F000BFD5780200ED78020097
:10787C00ED78020089790200257A0200A17A0200D3
:10788C00357B0200557B0200657B0200917B020078
:10789C00AF7B0200CD7B0200EB7B0200F97B020088
:1078AC00F97B0200F97B0200F97B0200F97B0200F4
:1078BC008D7C02009B7C0200AF7C0200C37C02002A
:1078CC00DD7C0200DD7C0200FFF794FFAB4B184619
:1078DC000CF0A0FB1190AA4A9DF83F301370FFE109
:1078EC000020FFF71DFD0346002B0DD00020FFF7F5
:1078FC005FFD9DF83F30022B02D14FF4E16301E0B4
:10790C004FF47A6310930BE00020FFF737FD9DF8DE
:10791C003F30022B01D1C82301E04FF4C873109300
:10792C00974A9DF83F301370944C109B00220093A3
:10793C0001924FF000024FF00003DDE90067394679
:10794C00CB03314643EA51433146CA0312F57A71EF
:10795C00029143F1000303934FF4FA624FF00003DA
:10796C00DDE9020113F0FCF802460B461346002237
:10797C00194620460CF0F6FA1190B1E10020FFF701
:10798C00CFFC0346002B0DD00020FFF711FD9DF816
:10799C003F30032B02D14FF4487301E04FF47A636C
:1079AC0010930BE00020FFF7E9FC9DF83F30032B10
:1079BC0001D1C82301E04FF4C8731093704A9DF8AD
:1079CC003F3013706D4C109B0022049305924FF0C6
:1079DC0000024FF00003DDE904673946CB03314662
:1079EC0043EA51433146CA0312F57A71069143F1C9
:1079FC00000307934FF4FA624FF00003DDE9060130
:107A0C0013F0AEF802460B461346002219462046E8
:107A1C000CF0A8FA119063E10020FFF781FC0346FB
:107A2C00002B06D00020FFF7C3FC4FF47A631093B1
:107A3C0005E00020FFF7A2FC4FF4C8731093504AE6
:107A4C009DF83F3013704D4C109B00229A46934684
:107A5C004FF000024FF000034FEACB3343EA5A4396
:107A6C004FEACA3212F57A71089143F10003099377
:107A7C004FF4FA624FF00003DDE9080113F070F8DF
:107A8C0002460B4613460022194620460CF06AFAB1
:107A9C00119025E10020FFF743FC0346002B0CD08E
:107AAC000020FFF785FC9DF83F30052B01D1C82342
:107ABC0001E04FF47A6310930BE00020FFF75EFCBB
:107ACC009DF83F30052B01D1C82301E04FF4C8735A
:107ADC0010932B4A9DF83F301370284C109B0022BA
:107AEC00984691464FF000024FF000034FEAC9331D
:107AFC0043EA58434FEAC83212F57A710A9143F1BE
:107B0C0000030B934FF4FA624FF00003DDE90A0116
:107B1C0013F026F802460B4613460022194620465F
:107B2C000CF020FA1190DBE00020FFF781FC144AE6
:107B3C009DF83F301370114B002240F266611846DD
:107B4C000CF010FA1190CBE00020FFF717FC0C4A58
:107B5C009DF83F301370C3E0074B01221A700120CF
:107B6C00FFF766FC054B002240F2666118460CF0EC
:107B7C00F9F91190B4E000BF6D280020A02200207C
:107B8C006C280020594B01221A700120FFF750FC81
:107B9C00574B00224FF4005118460CF0E3F91190AA
:107BAC009EE0524B01221A700120FFF741FC504B12
:107BBC00002240F2666118460CF0D4F911908FE067
:107BCC004A4B01221A700120FFF732FC484B00226D
:107BDC004FF4005118460CF0C5F9119080E0FFF7F6
:107BEC0014FC444A9DF83F30137079E0424B184620
:107BFC000CF010FA11909DF83F30C3F11103109363
:107C0C00109B002B35D0119B002B32D1109B012BDC
:107C1C0028D9394C109B9BB21A46C82302FB03F39C
:107C2C00DA171E4617464FF000024FF00003FB0315
:107C3C0043EA5643F20312F57A710C9143F10003B7
:107C4C000D934FF4FA624FF00003DDE90C0112F0D2
:107C5C0087FF02460B4613460022194620460CF0BD
:107C6C0081F911900220FFF789FB244B01221A7035
:107C7C0036E00220FFF79CFB204B00221A702FE00D
:107C8C00FFF7B8FD1B4A9DF83F30137028E0FFF753
:107C9C00B1FD0020FFF772FB164A9DF83F301370C0
:107CAC001EE0FFF7A7FD0120FFF768FB114A9DF8C6
:107CBC003F30137014E0FFF79DFD0020FFF75EFBD3
:107CCC000120FFF75BFB0B4A9DF83F30137007E078
:107CDC00FFF79BFB074A9DF83F30137000E000BF95
:107CEC00119B184612B0BDE8D08F00BF6D28002044
:107CFC00A02200206C280020C02200207428002024
:107D0C0000B583B00190074B1B6803F00103002BF7
:107D1C0004D0054B1B781846FFF78AFD00BF03B053
:107D2C005DF804FB702800206C28002000B583B09F
:107D3C0001900220FFF77CFB00BF03B05DF804FB51
:107D4C0000B585B003468DF8073000230393084B2C
:107D5C001B6803F00103002B05D09DF80730184673
:107D6C00FFF766FD0390039B184605B05DF804FB16
:107D7C007028002000B585B001900091002303937A
:107D8C002A4A019B13602A4A009B1360019B03F053
:107D9C000203002B2AD00023029308E001220121C8
:107DAC00029800F055F80390029B01330293029B5A
:107DBC00032B02D8039B002BF0D0039B002B06D186
:107DCC0040F2333204211B480BF0A4FB0390039BBD
:107DDC00002B02D10BF026FC0390039B002B05D14A
:107DEC00154A002115480CF083F80390019B03F011
:107DFC000103002B14D00120FFF7CCFB039B002BBD
:107E0C0005D10F4A00210F480CF072F80390039B28
:107E1C00002B05D10C4A01210C480CF069F8039099
:107E2C00039B184605B05DF804FB00BF70280020CA
:107E3C0078280020B0B30300E5770200ACB3030050
:107E4C000D7D0200A4B30300397D0200A8B303002A
:107E5C0084B001900B468DF8033013468DF8023038
:107E6C0000230393019B032B3CD89DF80230012B7C
:107E7C000BD19DF80330012B04D1019BDBB20E33E7
:107E8C00DBB200E000238DF802309DF80330022BAA
:107E9C000FD0022B23DC002B16D0012B1FD1144941
:107EAC00019A13465B0013440B449DF802201A7090
:107EBC001AE00F49019A13465B0013440B4401333B
:107ECC009DF802201A700FE00949019A13465B00D5
:107EDC0013440B4402339DF802201A7004E007236C
:107EEC00039301E007230393039B184604B07047E8
:107EFC007C28002000B585B001900B468DF803302E
:107F0C00019B032B14D89DF80330002B01D00323C5
:107F1C0000E000238DF80F300198FFF725FB024697
:107F2C009DF80F3019461046FFF762FB002300E066
:107F3C000623184605B05DF804FB00B583B001902C
:107F4C0001210198FFF7D6FF0346184603B05DF8F0
:107F5C0004FB00B583B0012200210020FFF778FF5D
:107F6C000190019B002B04D0019B072B01D0019B9E
:107F7C001CE0072202210120FFF76AFF0190019B00
:107F8C00002B04D0019B072B01D0019B0EE0042297
:107F9C0002210020FFF75CFF0190019B002B04D015
:107FAC00019B072B01D0019B00E00023184603B076
:107FBC005DF804FB00B583B0012202210020FFF71D
:107FCC0047FF0190019B002B04D0019B072B01D094
:107FDC00019B1CE0072202210120FFF739FF0190D1
:107FEC00019B002B04D0019B072B01D0019B0EE0C1
:107FFC000A2200210020FFF72BFF0190019B002B90
:10800C0004D0019B072B01D0019B00E000231846F4
:10801C0003B05DF804FB00B583B001900120FFF7BD
:10802C0035FB0346002B03D0019B02221A700CE097
:10803C000020FFF72BFB0346002B03D0019B0B22E8
:10804C001A7002E0019B00221A7000BF03B05DF8A9
:10805C0004FB00B583B00020FFF76FFF0190019B7C
:10806C00002B04D0019B062B01D0019B0CE00120BE
:10807C00FFF763FF0190019B002B04D0019B062BA3
:10808C0001D0019B00E00023184603B05DF804FB0F
:10809C0000B585B001900091019B1B88102B02D07C
:1080AC00112B18D02FE01A4B1B68002B0DD1FFF7AA
:1080BC0050FF0390039B002B07D0164B1B68002B23
:1080CC0003D0144B1B6803989847114B1B68013362
:1080DC000F4A136017E00E4B1B68013B0C4A1360F0
:1080EC000B4B1B68002B0DD1FFF764FF0390039B18
:1080FC00002B07D0074B1B68002B03D0054B1B68CC
:10810C000398984700BF00BF05B05DF804FB00BFA3
:10811C00942800209028002000B585B00190009193
:10812C00002303930A4A019B1360009B002B02D08F
:10813C000098FFF770FF074B1B68002B02D1FFF76D
:10814C0039FF0390039B184605B05DF804FB00BF94
:10815C009028002094280020BFF34F8F00BF064BBF
:10816C00DB6803F4E0620449044B1343CB60BFF3B8
:10817C004F8F00BF00BFFDE700ED00E00400FA05E3
:10818C0082B01D4B1B68B3F1FF3F0AD11B4B1B6820
:10819C00DBB201931A4B1B681B0903F00F0300930E
:1081AC0005E0154B1B680193164B1B680093019B54
:1081BC00062B1DD1009B033B042B17D801A252F8B0
:1081CC0023F000BFE5810200E9810200ED8102008D
:1081DC00F1810200F581020001230AE0012308E08D
:1081EC00012306E0012304E0012302E0012300E067
:1081FC000023184602B0704730010010E00F00F069
:10820C00E80F00F03401001082B0174B1B68DBB292
:10821C000193164B1B681B0903F00F030093019B82
:10822C00062B1DD1009B033B042B17D801A252F83F
:10823C0023F000BF55820200598202005D820200C9
:10824C00618202006582020001230AE0002308E03B
:10825C00002306E0002304E0002302E0002300E0FA
:10826C000023184602B07047E00F00F0E80F00F052
:10827C0082B01D4B1B68B3F1FF3F0AD11B4B1B682F
:10828C00DBB201931A4B1B681B0903F00F0300931D
:10829C0005E0154B1B680193164B1B680093019B63
:1082AC00062B1DD1009B033B042B17D801A252F8BF
:1082BC0023F000BFD5820200D9820200DD820200C9
:1082CC00E1820200E582020001230AE0012308E0BA
:1082DC00012306E0012304E0012302E0012300E076
:1082EC000023184602B0704730010010E00F00F078
:1082FC00E80F00F03401001082B0174B1B68DBB2A2
:10830C000193164B1B681B0903F00F030093019B91
:10831C00062B1DD1009B033B042B17D801A252F84E
:10832C0023F000BF45830200498302004D83020005
:10833C00518302005583020001230AE0002308E068
:10834C00002306E0002304E0002302E0002300E009
:10835C000023184602B07047E00F00F0E80F00F061
:10836C0082B01D4B1B68B3F1FF3F0AD11B4B1B683E
:10837C00DBB201931A4B1B681B0903F00F0300932C
:10838C0005E0154B1B680193164B1B680093019B72
:10839C00062B1DD1009B033B042B17D801A252F8CE
:1083AC0023F000BFC5830200C9830200CD83020005
:1083BC00D1830200D583020001230AE0012308E0E7
:1083CC00012306E0012304E0012302E0012300E085
:1083DC000023184602B0704730010010E00F00F087
:1083EC00E80F00F03401001082B0174B1B68DBB2B1
:1083FC000193164B1B681B0903F00F030093019BA1
:10840C00062B1DD1009B033B042B17D801A252F85D
:10841C0023F000BF35840200398402003D84020041
:10842C00418402004584020001230AE0002308E095
:10843C00002306E0002304E0002302E0002300E018
:10844C000023184602B07047E00F00F0E80F00F070
:10845C0082B0174B1B68DBB20193164B1B681B09D0
:10846C0003F00F030093019B062B1DD1009B033BD4
:10847C00042B17D801A252F823F000BF9D840200F0
:10848C00A1840200A5840200A9840200AD8402002C
:10849C0001230AE0002308E0002306E0002304E0A7
:1084AC00002302E0002300E00023184602B07047CE
:1084BC00E00F00F0E80F00F082B01D4B1B68B3F129
:1084CC00FF3F0AD11B4B1B68DBB201931A4B1B6895
:1084DC001B0903F00F03009305E0154B1B68019378
:1084EC00164B1B680093019B062B1DD1009B033B75
:1084FC00042B17D801A252F823F000BF1D850200EF
:10850C002185020025850200298502002D850200A7
:10851C0000230AE0002308E0012306E0012304E025
:10852C00012302E0012300E00023184602B070474B
:10853C0030010010E00F00F0E80F00F034010010E3
:10854C0082B01D4B1B68B3F1FF3F0AD11B4B1B685C
:10855C00DBB201931A4B1B681B0903F00F0300934A
:10856C0005E0154B1B680193164B1B680093019B90
:10857C00062B1DD1009B033B042B17D801A252F8EC
:10858C0023F000BFA5850200A9850200AD8502007D
:10859C00B1850200B585020001230AE0012308E041
:1085AC00012306E0012304E0012302E0012300E0A3
:1085BC000023184602B0704730010010E00F00F0A5
:1085CC00E80F00F03401001082B01D4B1B68B3F1B2
:1085DC00FF3F0AD11B4B1B68DBB201931A4B1B6884
:1085EC001B0903F00F03009305E0154B1B68019367
:1085FC00164B1B680093019B062B1DD1009B033B64
:10860C00042B17D801A252F823F000BF2D860200CC
:10861C003186020035860200398602003D86020052
:10862C0001230AE0012308E0012306E0012304E012
:10863C00012302E0012300E00023184602B070473A
:10864C0030010010E00F00F0E80F00F034010010D2
:10865C0082B0154B1B680193144B1B680093019B54
:10866C00062B1DD1009B033B042B17D801A252F8FB
:10867C0023F000BF95860200998602009D860200B9
:10868C00A1860200A586020000230AE0002308E070
:10869C00002306E0012304E0012302E0012300E0B3
:1086AC000023184602B0704730010010340100104E
:1086BC0082B0154B1B680193144B1B680093019BF4
:1086CC00062B1DD1009B033B042B17D801A252F89B
:1086DC0023F000BFF5860200F9860200FD86020039
:1086EC00018702000587020000230AE0002308E04E
:1086FC00002306E0002304E0012302E0012300E054
:10870C000023184602B070473001001034010010ED
:10871C0008B5FFF7CDFF0346002B07D04FF0102311
:10872C004FF08042D3F80832C2F8583500BF08BD6C
:10873C0000BF044BD3F80034002BFAD000BF00BFAD
:10874C00704700BF00E0014000B583B00190054ABE
:10875C00019BC2F80435FFF7EBFF00BF03B05DF8D7
:10876C0004FB00BF00E00140024B034A1A6000BF4B
:10877C00704700BF002300200090D00308B5FFF71E
:10878C00FFFC0346002B06D0964B1B681B0A964A2F
:10879C0003F01F031360FFF737FD0346002B02D0D5
:1087AC00924B934A1A60FFF763FD0346002B06D0E9
:1087BC00904B1B685B0B904A03F007031360FFF7A9
:1087CC009BFD0346002B05D08C4BDB688B4A23F0BA
:1087DC008073D360FFF7C4FD0346002B0ED04FF01F
:1087EC0080430022C3F80C214FF080430022C3F8D1
:1087FC0010214FF080430022C3F83825FFF7F4FD19
:10880C000346002B02D07E4B03221A60FFF720FE9A
:10881C000346002B0BD07B4B05221A607A4B0122AE
:10882C001A607A4B00221A60794B3F221A60FFF7CC
:10883C0043FE0346002B76D04FF08053754AD3F895
:10884C000434C2F820354FF08053724AD3F8083400
:10885C00C2F824354FF080536E4AD3F80C34C2F86A
:10886C0028354FF080536B4AD3F81034C2F82C35AE
:10887C004FF08053674AD3F81434C2F830354FF0B8
:10888C008053644AD3F81834C2F834354FF080530F
:10889C00604AD3F81C34C2F840354FF080535D4A1F
:1088AC00D3F82034C2F844354FF08053594AD3F8EA
:1088BC002434C2F848354FF08053564AD3F8283444
:1088CC00C2F84C354FF08053524AD3F82C34C2F8CE
:1088DC0050354FF080534F4AD3F83034C2F85435EA
:1088EC004FF080534B4AD3F83434C2F860354FF014
:1088FC008053484AD3F83834C2F864354FF080536B
:10890C00444AD3F83C34C2F868354FF08053414A9E
:10891C00D3F84034C2F86C354FF080533D4AD3F84D
:10892C004434C2F87035FFF70BFE0346002B05D01C
:10893C00394B1B68394A03F04F031360FFF744FEB1
:10894C000346002B0DD04FF08043D3F8003403F0D6
:10895C000103002B05D04FF080436FF00102C3F8E8
:10896C000024FFF775FE0346002B05D02C4B1B682B
:10897C002B4A43F4806313602A4BD3F88830294A7E
:10898C0043F47003C2F88830BFF34F8F00BFBFF3BE
:10899C006F8F00BFFFF7BCFE4FF01023D3F80032EF
:1089AC00002B05DB4FF01023D3F80432002B15DA23
:1089BC000120FFF7C9FE4FF010231522C3F8002247
:1089CC00FFF7B6FE4FF010231522C3F80422FFF771
:1089DC00AFFE0020FFF7B8FEFFF7BEFBFFF7C4FEAB
:1089EC0000BF08BD240300104035014074C007408F
:1089FC000DF0ADBA440200103C050040F0ED00E073
:108A0C00A005004010560040885600401856004003
:108A1C001456004000C0004058020010E40E004004
:108A2C003C17004000ED00E06DDF704700BF1846BA
:108A3C0079DF704700BF18467DDF704700BF1846CE
:108A4C0064DF704700BF184682B003460091ADF852
:108A5C000630BDF80630DAB2009B1A70BDF806304D
:108A6C001B0A9AB2009B0133D2B21A700223184629
:108A7C0002B0704700B589B0039002911346ADF86F
:108A8C000630029B1B8803F10902BDF806309A429E
:108A9C0001D90C2353E004AB1846FFF7C5FF079030
:108AAC00079B0693069B002B01D0069B47E0029B7D
:108ABC001B881A46039B134408221A70029B1B88BE
:108ACC0001339AB2029B1A80029B1B881A46039BA5
:108ADC0013441B221A70029B1B8801339AB2029B0F
:108AEC001A80029B1B881A46039B981804AB01330F
:108AFC000622194612F066F9029B1B8806339AB2BD
:108B0C00029B1A809DF8103023F00103DBB2002B7E
:108B1C0007D1029B1B881A46039B134400221A7030
:108B2C0006E0029B1B881A46039B134401221A7011
:108B3C00029B1B8801339AB2029B1A8000231846B1
:108B4C0009B05DF804FB00B589B003900291019265
:108B5C00ADF80230039B1B78012B05D1039B5B788E
:108B6C00002B01D1072392E0019B1B889A1CBDF8B6
:108B7C0002309A420ED8039B1B78012B0CD1019B1F
:108B8C001B881A46039B5B7813449A1CBDF8023071
:108B9C009A4201D90C237AE0019B1B88BDF8022074
:108BAC00D31A9BB2023BADF81C30BDF81C30ADF8AB
:108BBC001230019B1B880233029A13440DF11202EE
:108BCC0011461846FFF738FF0690069B0593059B48
:108BDC00002B01D0059B5AE0039B1B78022B06D07F
:108BEC00039B5B789AB2BDF812309A4209D3BDF858
:108BFC001230BDF81C209A4203D309238DF81F3084
:108C0C0017E008238DF81F30039B1B78012B0CD128
:108C1C00039B5B789BB2BDF81C209A4205D3039B47
:108C2C005B789BB2ADF8123003E0BDF81C30ADF8A8
:108C3C001230BDF81230FE2B01D90C2327E0BDF801
:108C4C001230DAB2019B1B881946029B0B4401328D
:108C5C00D2B21A70019B1B8801339AB2019B1A8005
:108C6C00019B1B881A46029B13449DF81F201A7007
:108C7C00019B1B8801339AB2019B1A80019B1A88B5
:108C8C00BDF8123013449AB2019B1A800023184687
:108C9C0009B05DF804FB00B589B00390029113464E
:108CAC00ADF80630029B1B881A1DBDF806309A429F
:108CBC0001D90C233BE00DF116031846FFF7B8FE63
:108CCC000790079B0693069B002B01D0069B2EE07A
:108CDC00029B1B881A46039B134403221A70029BA7
:108CEC001B8801339AB2029B1A80029B1B881A467E
:108CFC00039B134419221A70029B1B8801339AB2EE
:108D0C00029B1A80BDF81620029B1B881946039BF8
:108D1C000B4419461046FFF797FE03461946029B73
:108D2C001A888BB213449AB2029B1A8000231846FD
:108D3C0009B05DF804FB84B0029101921A46034617
:108D4C008DF80F301346ADF80C30019B1B88DA1CE4
:108D5C00BDF80C309A4201D90C2328E0019B1B88EA
:108D6C001A46029B134402221A70019B1B88013382
:108D7C009AB2019B1A80019B1B881A46029B1344D2
:108D8C0001221A70019B1B8801339AB2019B1A8035
:108D9C00019B1B881A46029B13449DF80F201A70E6
:108DAC00019B1B8801339AB2019B1A800023184641
:108DBC0004B0704784B0029101921A4603468DF8B4
:108DCC000F301346ADF80C30019B1B88DA1CBDF834
:108DDC000C309A4201D90C2328E0019B1B881A46BF
:108DEC00029B134402221A70019B1B8801339AB216
:108DFC00019B1A80019B1B881A46029B13440A2272
:108E0C001A70019B1B8801339AB2019B1A80019B3B
:108E1C001B881A46029B13449DF80F201A70019B65
:108E2C001B8801339AB2019B1A800023184604B0A8
:108E3C00704700B58FB0039001930B468DF80B3043
:108E4C0013468DF80A3000238DF83330109B1B88A5
:108E5C00ADF8303000230D9371E0039B5A680D9BE5
:108E6C009B001A4405AB106818600DF11B0105AB93
:108E7C0000221846FFF7E4FD0A900A9B0993099B10
:108E8C00002B01D0099B7CE09DF81B309DF80A203B
:108E9C009A4251D19DF83330002B01D0002300E0D1
:108EAC0002238DF82330109B1B881A469DF81B302B
:108EBC001A449DF823301A44BDF844309A4201DD1F
:108ECC000C235EE09DF8333083F00103DBB2002B02
:108EDC0016D0109B1B8801339AB2109B1A80109BE2
:108EEC001B881A46019B13449DF80B201A70109B8B
:108EFC001B8801339AB2109B1A8001238DF83330F2
:108F0C00109B1B881A46019B1A440DF11B0105ABE3
:108F1C001846FFF795FD0A900A9B0793079B002BB9
:108F2C0001D0079B2DE0109B1A889DF81B309BB23B
:108F3C0013449AB2109B1A800D9B01330D93039B23
:108F4C001B881A460D9B934287DB9DF83330002B10
:108F5C0016D0109B1A88BDF83030D31A9BB2013B47
:108F6C00ADF82E30BDF82E30FF2B01D90C2308E0C4
:108F7C00BDF83030019A1344BDF82E20D2B21A70CD
:108F8C00002318460FB05DF804FB00B58BB00590BC
:108F9C0003930B468DF8133013468DF812309DF861
:108FAC001310BDF8343001930C9B0093039B0222E9
:108FBC000598FFF73EFF0990099B0893089B002B2F
:108FCC0001D0089B14E09DF81210BDF834300193C9
:108FDC000C9B0093039B10220598FFF72AFF099026
:108FEC00099B0793079B002B01D0079B00E00023F4
:108FFC0018460BB05DF804FB82B00190019B1B88F6
:10900C00052B0AD9019B1B88B3F5486F07D9019B27
:10901C001B884FF6FF72934201D0072325E0019B7A
:10902C005B88052B0AD9019B5B88B3F5486F07D980
:10903C00019B5B884FF6FF72934201D0072314E02B
:10904C00019B1B884FF6FF7293420DD0019B5B88EE
:10905C004FF6FF72934207D0019B1A88019B5B88E5
:10906C009A4201D9072300E00023184602B070474A
:10907C0000B587B0039002910192ADF80230019BCC
:10908C001B889A1DBDF802309A4201D90C234DE081
:10909C000398FFF7B1FF0590059B0493049B002BED
:1090AC0001D0049B42E0019B1B881A46029B13448F
:1090BC0005221A70019B1B8801339AB2019B1A80FE
:1090CC00019B1B881A46029B134412221A70019BA7
:1090DC001B8801339AB2019B1A80039B1A88019B4F
:1090EC001B881946029B0B4419461046FFF7ACFC33
:1090FC0003461946019B1A888BB213449AB2019B02
:10910C001A80039B5A88019B1B881946029B0B44AF
:10911C0019461046FFF798FC03461946019B1A881E
:10912C008BB213449AB2019B1A800023184607B0E5
:10913C005DF804FB00B587B0039002910192ADF885
:10914C000230039B9B8802330593019B1B881A46B4
:10915C00059B13449A1CBDF802309A4201D90C238A
:10916C0054E0059BFE2B01D90C234FE0059BDAB292
:10917C00019B1B881946029B0B440132D2B21A7018
:10918C00019B1B8801339AB2019B1A80019B1B889F
:10919C001A46029B1344FF221A70019B1B88013351
:1091AC009AB2019B1A80039B1A88019B1B88194653
:1091BC00029B0B4419461046FFF746FC0346194622
:1091CC00019B1A888BB213449AB2019B1A80039BA1
:1091DC009B88002B19D0039B9B68002B01D1072384
:1091EC0014E0019B1B881A46029B9818039B9968F4
:1091FC00039B9B881A4611F0E5FD019B1A88039B83
:10920C009B8813449AB2019B1A800023184607B01E
:10921C005DF804FB00B589B0039002910192ADF8A2
:10922C000230039B9B6A002B01D1072372E00023C1
:10923C008DF81F3066E0039B996A9DF81F2013463A
:10924C005B0013449B000B440693069B9B880233E4
:10925C000593059BFE2B01D90C235BE0059BDAB231
:10926C00019B1B881946029B0B440132D2B21A7027
:10927C00019B1B8801339AB2019B1A80019B1B88AE
:10928C001A46029B134416221A70019B1B88013349
:10929C009AB2019B1A80069B1A88019B1B8819465F
:1092AC00029B0B4419461046FFF7CEFB03461946AA
:1092BC00019B1A888BB213449AB2019B1A80069BAD
:1092CC009B88002B19D0069B9B68002B01D1072390
:1092DC0020E0019B1B881A46029B9818069B9968F4
:1092EC00069B9B881A4611F06DFD019B1A88069B04
:1092FC009B8813449AB2019B1A809DF81F3001334E
:10930C008DF81F30039B93F82C309DF81F209A4248
:10931C0091D30023184609B05DF804FB00B595B055
:10932C0005900491039200231393039B1B88ADF8C3
:10933C004A30039B00221A80059B93F82D30002B9A
:10934C000ED0BDF84A301A4603990498FFF792FBE9
:10935C001390139B1193119B002B01D0119BD8E000
:10936C00059B9B78002B0ED0BDF84A301A4603990A
:10937C000498FFF790FC1390139B1093109B002BF9
:10938C0001D0109BC5E0059BDB78002B10D0059B12
:10939C00DB7858B2BDF84A30039A0499FFF7CBFC3E
:1093AC001390139B0F930F9B002B01D00F9BB0E0DE
:1093BC00059B5B68002B11D0059B5B6893F9000043
:1093CC00BDF84A30039A0499FFF7F4FC1390139BF1
:1093DC000E930E9B002B01D00E9B9AE0059B1B89D4
:1093EC00002B14D0059B03F10800BDF84A30019303
:1093FC00039B0093049B06220221FFF7C6FD1390EA
:10940C00139B0D930D9B002B01D00D9B81E0059BB5
:10941C001B8A002B14D0059B03F11000BDF84A30B9
:10942C000193039B0093049B07220321FFF7ADFDDF
:10943C001390139B0C930C9B002B01D00C9B68E09E
:10944C00059B1B8B002B14D0059B03F11800BDF85A
:10945C004A300193039B0093049B15221421FFF7C0
:10946C0094FD1390139B0B930B9B002B01D00B9B28
:10947C004FE0059B1B6A002B0FD0059B186ABDF8AB
:10948C004A30039A0499FFF7F3FD1390139B0A9348
:10949C000A9B002B01D00A9B3BE0059B5B6A002BCF
:1094AC000FD0059B586ABDF84A30039A0499FFF710
:1094BC0041FE1390139B0993099B002B01D0099B30
:1094CC0027E0059B93F82C30002B0ED0BDF84A30CA
:1094DC00039A04990598FFF79DFE1390139B08932C
:1094EC00089B002B01D0089B13E0059B1B78002BDD
:1094FC000ED0BDF84A30039A04990598FFF723FB68
:10950C001390139B0793079B002B01D0079B00E044
:10951C00139B184615B05DF804FB86B003900192BE
:10952C001A460B46ADF80A3013468DF80930039BEA
:10953C00002B02D0019B002B01D100235CE0002307
:10954C00ADF816300CE0BDF81630039A13441B78B6
:10955C009AB2BDF8163013449BB20133ADF81630F5
:10956C00BDF816305A1CBDF80A309A420FDA019B2E
:10957C001B88BDF816209A42E5D3BDF8163001338E
:10958C00039A13441B789DF809209A42DBD1BDF84D
:10959C001620BDF80A309A4201D300232CE0BDF806
:1095AC0016300233ADF81430BDF81630039A13445C
:1095BC001B78002B08D0BDF81630039A13441B7887
:1095CC009BB2013B9BB200E00023ADF81230BDF81A
:1095DC001230002B08D0BDF81420BDF812301A44FC
:1095EC00BDF80A309A4201DD002305E0019BBDF86D
:1095FC0014201A80BDF81230184606B0704700B51A
:10960C0085B001900B46ADF8023013468DF8013051
:10961C000023ADF80C309DF8013003AABDF8021000
:10962C000198FFF77AFF0346ADF80E30BDF80E3007
:10963C00002B01D1002304E0BDF80C301A46019B2D
:10964C001344184605B05DF804FB72DF704700BF89
:10965C00184673DF704700BF184674DF704700BFB1
:10966C00184682B00190019B93F83034184602B032
:10967C00704784B00190002303930AE0019A039B86
:10968C0013441B78002B01D0012306E0039B01330C
:10969C000393039B052BF1D90023184604B07047A4
:1096AC0082B003468DF807309DF807305A1C074BE3
:1096BC0083FB02135910D317C91A0B469B000B449A
:1096CC00D11ACBB2184602B0704700BF6766666607
:1096DC0082B001900091009BDB7B012B04D1009B9D
:1096EC009A88019BA3F8242400BF02B0704700B5F0
:1096FC0085B001900091019B002283F82E24009BE1
:10970C009A88019BB3F824349A4216D1019B1B7999
:10971C0083F00103DBB2002B0FD00121019800F084
:10972C00B1FA0390039B002B07D0019B9B6B002B82
:10973C0003D0019B9B6B0398984700BF05B05DF865
:10974C0004FB00B585B001900091009B1B88262B73
:10975C001ED1009B1B7A012B03D0009B1B7A022B82
:10976C0017D1019B9B781846FFF79AFF03461946C1
:10977C00019800F087FA0390039B002B09D0019B02
:10978C009B6B002B05D0019B9B6B0398984700E0CB
:10979C0000BF05B05DF804FB00B585B001900B4629
:1097AC008DF80330019B03F227431846FFF761FF46
:1097BC0003468DF80F309DF80330013B032B33D853
:1097CC0001A252F823F000BFE597020009980200AD
:1097DC001D98020029980200019B9B79002B0DD04B
:1097EC00019B93F8243083F00103DBB2002B05D0EE
:1097FC009DF80F30002B01D0012316E0019BDB7983
:10980C00002B05D09DF80F30002B01D002230CE06B
:10981C00019B1B7A002B01D0032306E0019B5B7A92
:10982C00002B01D0042300E00023184605B05DF89E
:10983C0004FB00BF82B001900091019B012283F8D0
:10984C003120019B0022C3F82024019B03F2264205
:10985C00009B5A60009B00229A60009B02221A70A7
:10986C00009B80229A810023184602B0704782B078
:10987C0001900091019B022283F83120019B93F807
:10988C002430002B03D0009B07221A7002E0009BAF
:10989C0003221A70019B1B699AB2009B9A81019B4F
:1098AC000022C3F82024019B03F22642009B5A603D
:1098BC00019BDA68009B9A600023184602B070473F
:1098CC0000B583B00190019B5B79002B0FD0019BFD
:1098DC0093F82E3483F00103DBB2002B07D00198F0
:1098EC00FFF7BFFE0346002B01D0012300E000234D
:1098FC0003F00103DBB2184603B05DF804FB00B5BE
:10990C0085B001900B468DF80330019BD3F8100401
:10991C00019BB3F8143401221946FFF770FE039033
:10992C00039B002B03D0039B9DF803201A70019B13
:10993C0003F15400019B03F58261019B3C331A46F1
:10994C00FFF783FE0346184605B05DF804FB00B52F
:10995C0085B001900091019B5A69009B9A60019B14
:10996C009B699AB2009B9A81019B93F82430002B3F
:10997C0004D0019B062283F83C2003E0019B0122CA
:10998C0083F83C200198FFF79BFF0346002B13D074
:10999C00009B02221A7504210198FFF7B0FF039077
:1099AC00039B0293029B002B01D0029B0FE0019BB7
:1099BC00052283F8312003E0019B032283F8312038
:1099CC00019B03F58262019BC3F8202400231846F7
:1099DC0005B05DF804FB00B585B001900091019BCA
:1099EC00DA69009B9A60019B1B6A9AB2009B9A8170
:1099FC00019B93F82430002B04D0019B062283F8A2
:109A0C003C2003E0019B012283F83C200198FFF7E6
:109A1C0057FF0346002B13D0009B02221A7504211A
:109A2C000198FFF76CFF0390039B0293029B002BA2
:109A3C0001D0029B0FE0019B062283F8312003E04A
:109A4C00019B042283F83120019B03F58262019B68
:109A5C00C3F820240023184605B05DF804FB82B03F
:109A6C000190019B9B78002B06D0019B93F8203032
:109A7C00002B01D000230AE0019B9B6A042B03D02E
:109A8C00019B5B6A042B01D1002300E001231846E3
:109A9C0002B0704784B00190019B93F82430002BE6
:109AAC0003D0EE23ADF80E3002E01F23ADF80E30DC
:109ABC00BDF80E30184604B0704782B001900B46CA
:109ACC008DF80330019B9DF8032083F8302000BFF4
:109ADC0002B0704730B587B001900091009B002B0D
:109AEC0002D0019B002B01D10E23B8E0009B7833F0
:109AFC001846FFF7B4FF034683F00103DBB2002BDB
:109B0C0001D00723ABE0019B00229A70019A009BC5
:109B1C00141D03F178050FCD0FC40FCD0FC495E8BC
:109B2C00070084E80700019B002283F83020009B8B
:109B3C00D3F8A420019B5A63009BD3F8A820019B67
:109B4C009A63019B4FF6FF72A3F82424019B03F543
:109B5C008262019BC3F82024019B03F22643072257
:109B6C000021184611F064F9019B1B7883F0010366
:109B7C00DBB2002B03D0019BFF2283F85420019B06
:109B8C0003F15502019BC3F810240198FFF782FFE3
:109B9C0003461A46019BA3F814240098019B03F179
:109BAC005501019B03F214431A46FFF7B7FB0590CE
:109BBC00059B0493049B002B01D0049B4FE0019B5D
:109BCC0003F23122019BC3F818240198FFF762FFBE
:109BDC0003461A46019BA3F81C24009B03F13C008E
:109BEC00019BD3F81814019B03F21C431A46FFF790
:109BFC0095FB0590059B0393039B002B01D0039BC6
:109C0C002DE0019B012283F85120019B9B699AB2A4
:109C1C00019BA3F84820019B012283F83C20019B67
:109C2C0000221A64019B002283F85020019B5A6980
:109C3C00019B5A64019B03F15400019B3C331A466F
:109C4C000021FFF702FD0590059B0293029B002B60
:109C5C0001D0029B03E0019B01221A70059B184660
:109C6C0007B030BD82B00190019B1B68012B03D063
:109C7C00019B1B68022B01D1012300E00023184635
:109C8C0002B0704700B585B001900B468DF80330DB
:109C9C00019B1B7883F00103DBB2002B01D008235E
:109CAC0009E1019B9DF803209A70019B03F2264366
:109CBC0007220021184611F0BBF8019B9B79002B61
:109CCC0003D0019B9B78012B0FD0019BDB79002BE0
:109CDC0003D0019B9B78012B07D0019BDB79002BD8
:109CEC0014D0019B9B78022B10D1019B5B6B002B3A
:109CFC0008D0019B012283F82D24019B5B6B08206B
:109D0C00984703E0019B002283F82D249DF8033033
:109D1C0019460198FFF740FD03461A46019B9A70BD
:109D2C00019B5B6B002B20D0019B9B78032B03D0FA
:109D3C00019B9B78042B18D1019B5B79002B14D0D1
:109D4C00019B93F82E3483F00103DBB2002B0CD073
:109D5C00019B002283F83024019B012283F82F24DD
:109D6C00019B5B6B0720984703E0019B002283F863
:109D7C002F24019B3C3318220021184611F058F86F
:109D8C00019B012283F83C20019B2C331846FFF7E2
:109D9C0069FF0346002B06D0019BDB6ADAB2019BFC
:109DAC0083F8512003E0019B012283F85120019B91
:109DBC0093F82430002B12D0019B28331846FFF760
:109DCC0051FF0346002B06D0019B9B6ADAB2019B24
:109DDC0083F8522003E0019B012283F85220019B5F
:109DEC00002283F85020019B9B78042B31D801A2D0
:109DFC0052F823F0559E0200159E0200259E02008B
:109E0C00359E0200459E0200019B3C331946019889
:109E1C00FFF710FD03901DE0019B3C3319460198A0
:109E2C00FFF725FD039015E0019B3C331946019883
:109E3C00FFF78DFD03900DE0019B3C331946019813
:109E4C00FFF7C9FD039005E0019B002283F8312048
:109E5C0000E000BF019B9B78002B20D0019B03F1FD
:109E6C005400019BD3F82014019B3C331A46FFF796
:109E7C00ECFB0390039B002B01D0039B1BE0019B8D
:109E8C0093F85420019B93F8303019461046FFF795
:109E9C00E0FB0390039B002B01D0039B0BE0019B89
:109EAC005B6B002B06D0019B5B6B019A92F8312007
:109EBC00104698470023184605B05DF804FB00BF18
:109ECC0000B585B001900091009B0393019B1B880A
:109EDC00262B10D0262B13DC102B02D0112B05D0E7
:109EEC000EE001990398FFF7F3FB0AE00199039840
:109EFC00FFF7FDFB05E001990398FFF722FC00E05A
:109F0C0000BF00BF05B05DF804FB00B585B0019043
:109F1C00019B93F854301846FFF79FFB019B0122DD
:109F2C0083F82E24019B002283F83024019B00220D
:109F3C0083F8502006210198FFF7E1FC0390039B66
:109F4C000293029B002B01D0029B12E0019B9B7899
:109F5C0019460198FFF796FE0390039B002B07D040
:109F6C00019B9B6B002B03D0019B9B6B0398984729
:109F7C000023184605B05DF804FB30B482B00190A4
:109F8C000091019B009A1C1D15460FCD0FC40FCDDF
:109F9C000FC495E8070084E8070000BF02B030BC8E
:109FAC00704775DF704700BF184676DF704700BFFB
:109FBC0018467ADF704700BF18467BDF704700BF3A
:109FCC001846000084B00346ADF806300023039316
:109FDC0016E00F49039A13469B0013449B000B4455
:109FEC001B88BDF806209A4207D1039A13469B00A2
:109FFC0013449B00064A134406E0039B013303936E
:10A00C00039B002BE5D00023184604B0704700BF1B
:10A01C00B828002082B001900B46ADF80230019BAD
:10A02C00BDF802201A80019B00221A72019B05497F
:10A03C0003F10A020B4603CB1060516000BF02B063
:10A04C00704700BFE828002082B00190019B4FF6BA
:10A05C00FF721A8000BF02B0704788B00390029163
:10A06C0011461A460B46ADF806301346ADF80430CF
:10A07C00039B9B881A46BDF8063013440793039B39
:10A08C009B881946039B9B88BDF80620934228BFEA
:10A09C0013469BB2CB1A0693039BDB881A46BDF87A
:10A0AC00043013440593039BDB881946039BDB8820
:10A0BC00BDF80420934228BF13469BB2CB1A0493DD
:10A0CC00029B5A88039B1B889A4205D3029B5A8891
:10A0DC00039B5B889A4201D900231CE0029B9B885E
:10A0EC001A46069B934205D8029B9B881A46079BEF
:10A0FC00934201D200230EE0029BDB881A46049B9C
:10A10C00934205D8029BDB881A46059B934201D2E9
:10A11C00002300E00123184608B0704700B583B057
:10A12C000190064B9B69002B03D0044B9B69019853
:10A13C00984700BF03B05DF804FB00BFCC2800209B
:10A14C0000B585B003460091ADF80630BDF8063079
:10A15C0000991846FFF725FF0390039B002B05D0B1
:10A16C00039B112B02D00398FFF7D8FF039B002B06
:10A17C000CBF01230023DBB2184605B05DF804FBCD
:10A18C0000B589B00190019B0793079B9BB21846C1
:10A19C00FFF718FF0690069B002B42D0069B1A7AFD
:10A1AC00224B1B7B9A4215D2079B9AB2069B0A3311
:10A1BC0019461046FFF7C4FF03468DF813309DF87F
:10A1CC001330002B2DD0069B1B7A0133DAB2069B81
:10A1DC001A7226E0069B00221A72144B1B7C002B71
:10A1EC000FD0079B9BB23B211846FFF7DEFE059074
:10A1FC00059B002B05D0059B082B02D00598FFF77B
:10A20C008DFF0A4B5B69002B0BD000238DF80C30B3
:10A21C00079B9BB2ADF80E30044B5B6903AA10464A
:10A22C00984700BF09B05DF804FB00BFCC280020A4
:10A23C0030B587B00190019B002B01D10E2353E068
:10A24C002B4A019B14461D460FCD0FC495E8070001
:10A25C0084E80700264B274A1A60019B1B68002BD9
:10A26C0011D0019B1B681846FFF7A3FE0490049BBA
:10A27C00002B01D0049B37E0019B1A681D4B106822
:10A28C00516803C308E01B48FFF797FE0490049B3A
:10A29C00002B01D0049B27E00023059320E0059AB6
:10A2AC0013469B0013449B00134A134403930398D7
:10A2BC00FFF7CAFE059B5B01104A1A44039B5A60C8
:10A2CC00039B04330E4A0021184609F011FE04903A
:10A2DC00049B002B01D0032306E0059B013305935F
:10A2EC00059B002BDBD00023184607B030BD00BF08
:10A2FC00CC280020E8280020B8280020982800202E
:10A30C008DA1020000B587B003460091ADF8063070
:10A31C00009B5B7A002B1AD1009B1B7A002B03D17C
:10A32C00164B5B68059302E0144B9B680593009BEE
:10A33C005B68BDF806200599184609F013FE0490D9
:10A34C00049B002B16D00498FFF7E8FE12E0009B4C
:10A35C0000221A72094B5B69002B0BD001238DF87C
:10A36C000C30BDF80630ADF80E30044B5B6903AA17
:10A37C001046984700BF07B05DF804FBCC280020BE
:10A38C0000B585B00190019BDB7B8DF80F30019BF4
:10A39C009B88ADF80C309DF80F30012B2CD14FF66B
:10A3AC00FF70FFF70FFE0290029B002B03D10420DD
:10A3BC00FFF7B4FE21E0BDF80C3019460298FFF708
:10A3CC0029FE029B03F10A00019B03F110014FF6D9
:10A3DC00FF7340F2F312FFF740FE03461A46029B4E
:10A3EC005A72074BDB89002B07D1BDF80C30029950
:10A3FC001846FFF787FF00E000BF05B05DF804FBCF
:10A40C00CC28002000B587B00190019B9B88ADF84B
:10A41C001630BDF816301846FFF7D4FD0490049B97
:10A42C00002B0ED0049B5B68184609F0F3FD0390DB
:10A43C00039B002B02D00398FFF770FE0498FFF7E4
:10A44C0003FE00BF07B05DF804FB000000B587B049
:10A45C000190019B06330593059B1A88194BDB89E8
:10A46C009A422BD1059B5B89022B27D1019B9B88A0
:10A47C00ADF81230BDF812301846FFF7A3FD03906B
:10A48C00039B002B1AD0059B0C33184600F0ACFB39
:10A49C000346002B06D0BDF8123003991846FFF77F
:10A4AC0031FF0BE0039B5B68184609F0B3FD02908B
:10A4BC00029B002B02D00298FFF730FE00BF07B0C2
:10A4CC005DF804FBCC28002000B585B00190019B01
:10A4DC009B88ADF80E30BDF80E301846FFF772FDB4
:10A4EC000290029B002B15D0029B03F10A00019BEA
:10A4FC0003F108014FF6FF7340F2F312FFF7ADFDC5
:10A50C0003461A46029B5A72BDF80E300299184641
:10A51C00FFF7F8FE00BF05B05DF804FB00B583B093
:10A52C0001900091019B1B88502B12D0502B18DCF2
:10A53C00122B12D0122B14DC102B02D0112B04D0A6
:10A54C000FE00198FFF71CFF0CE00198FFF75AFF92
:10A55C0008E00198FFF77AFF04E00198FFF7B4FFD9
:10A56C0000E000BF00BF03B05DF804FB30B58FB056
:10A57C000190009100230293009B002B1AD0002322
:10A58C000D9314E06B460D9918460CF05CFB0346DA
:10A59C00002B09D0029B5A1C02920D9A92B25B00BE
:10A5AC0038336B4423F82C2C0D9B01330D930D9BEE
:10A5BC00132BE7D9019B1D4602AC0FCC0FC50FCC5A
:10A5CC000FC594E8070085E8070001980FB030BD6F
:10A5DC0000B583B00346ADF80630BDF80630132B3A
:10A5EC0001D900230CE0BDF80630194606480CF0E2
:10A5FC00D5FABDF80630194604480CF0CFFA012301
:10A60C00184603B05DF804FBF8280020F42800205D
:10A61C0000B585B00346ADF80630002303930DE07A
:10A62C00039B9B00094A13440433BDF806201146D2
:10A63C0018460CF0EFFA039B01330393039B1D2B7D
:10A64C00EED900BF00BF05B05DF804FBF028002078
:10A65C0000B583B00346ADF80630BDF80630194698
:10A66C0003480CF0D7FA00BF03B05DF804FB00BF41
:10A67C00F828002030B59BB0184B9B68DB4318932F
:10A68C00164B5A6818AB114618460CF0B2FB189AC8
:10A69C006B4611461846FFF769FF0DAC6D460FCDA2
:10A6AC000FC40FCD0FC495E8070084E80700002302
:10A6BC0019930BE0199B5B0068336B4433F8303C07
:10A6CC001846FFF7A5FF199B013319930D9B199A97
:10A6DC009A42EFD300BF00BF1BB030BDF028002062
:10A6EC0000B583B003468DF807309DF80730194646
:10A6FC0003480CF0A8FA0346184603B05DF804FBB7
:10A70C00F028002000B583B001900B46ADF8023064
:10A71C0013468DF801309DF80130002B06D0BDF8A2
:10A72C000230194601980CF039FA05E0BDF80230F8
:10A73C00194601980CF06EFA00BF03B05DF804FBEB
:10A74C0000B585B001900091019B9B88ADF80E304F
:10A75C00019B1B88103B0A2B00F2888001A252F847
:10A76C0023F000BF9DA70200D9A7020079A8020020
:10A77C0079A8020079A8020079A8020079A8020041
:10A78C0079A8020079A8020043A80200E5A70200FC
:10A79C00FFF770FFBDF80E301846FFF719FF0346A0
:10A7AC0083F00103DBB2002B05D0324AF0210420E8
:10A7BC0008F0B0FF57E0019BDB7B022B53D1BDF8B7
:10A7CC000E3019462C480CF0E9F94CE0BDF80E306F
:10A7DC001846FFF73DFF49E0019B1B7AC3F30313B7
:10A7EC00DBB28DF80D309DF80D30032B8CBF01239F
:10A7FC000023DAB2BDF80E3019462048FFF782FF6D
:10A80C009DF80D30022B8CBF01230023DAB2BDF86A
:10A81C000E3019461A48FFF775FF9DF80D30012BC5
:10A82C008CBF01230023DAB2BDF80E30194615484F
:10A83C00FFF768FF1AE0019B1B7A002B15D1019BD7
:10A84C005B7AC3F3C003DBB2002B14BF01230023DC
:10A85C008DF80C309DF80C20BDF80E3019460748C9
:10A86C00FFF750FF01E000BF00E000BF00BF05B0E4
:10A87C005DF804FBD0B30300FC280020082900205D
:10A88C00042900200029002000B583B00346ADF850
:10A89C000630BDF80630132B01D9002306E0BDF8B5
:10A8AC000630194603480CF0CEF90346184603B09F
:10A8BC005DF804FBF428002000B585B00346ADF824
:10A8CC00063000238DF80F30BDF806301846FFF720
:10A8DC00DBFF0346002B11D0BDF8063019460A48A1
:10A8EC000CF0B1F903468DF80E309DF80E30002BAC
:10A8FC0001D0022300E001238DF80F309DF80F30BA
:10A90C00184605B05DF804FBFC28002000B585B0A6
:10A91C000346ADF8063000238DF80F30BDF8063035
:10A92C001846FFF7B1FF0346002B11D0BDF80630D7
:10A93C0019460A480CF087F903468DF80E309DF83D
:10A94C000E30002B01D0022300E001238DF80F30D4
:10A95C009DF80F30184605B05DF804FBF828002070
:10A96C0000B583B00346ADF80630BDF80630184686
:10A97C00FFF78AFF0346002B07D0BDF806301946B7
:10A98C0004480CF060F9034600E00023184603B0BD
:10A99C005DF804FB0029002000B583B00346ADF838
:10A9AC000630BDF806301846FFF76EFF0346002B45
:10A9BC0007D0BDF80630194604480CF044F903469C
:10A9CC0000E00023184603B05DF804FB04290020C6
:10A9DC0000B583B00346ADF80630BDF80630184616
:10A9EC00FFF752FF0346002B07D0BDF8063019467F
:10A9FC0004480CF028F9034600E00023184603B085
:10AA0C005DF804FB0829002000B583B01821074825
:10AA1C000CF031F90190019B182B01D1182301E0A6
:10AA2C00019BDBB2184603B05DF804FBF028002054
:10AA3C0000B583B003460A46ADF8063013468DF8D0
:10AA4C0005309DF805301846FFF74AFE0346002BEB
:10AA5C0016D0BDF806301846FFF716FF0346002B3C
:10AA6C000ED09DF8053006339B00084A134404337E
:10AA7C00BDF80620114618460CF0E5F8034600E038
:10AA8C000023184603B05DF804FB00BFF02800203B
:10AA9C0000B583B00346ADF806300B468DF8053093
:10AAAC0013468DF804309DF805301846FFF718FE54
:10AABC000346002B15D0BDF806301846FFF7E4FE10
:10AACC000346002B0DD09DF8053006339B00074A3A
:10AADC00134404339DF80420BDF806101846FFF704
:10AAEC0011FE00BF03B05DF804FB00BFF02800208E
:10AAFC0000B587B0039002910192029B002B01D10B
:10AB0C0000231FE000230593039B002B19D0002387
:10AB1C00049313E003AB049918460CF094F8034625
:10AB2C00002B08D0049B9AB2029B019910469847BF
:10AB3C00059B01330593049B01330493049B132B56
:10AB4C00E8D9059B184607B05DF804FB00B583B047
:10AB5C0001900091054B9B68009A01991846FFF7EC
:10AB6C00C7FF0346184603B05DF804FBF02800202D
:10AB7C0000B585B00346029101928DF80F309DF817
:10AB8C000F301846FFF7ACFD034683F00103DBB230
:10AB9C00002B01D000230CE09DF80F30074A063340
:10ABAC009B0013445B68019A02991846FFF7A0FFBB
:10ABBC000346184605B05DF804FB00BFF0280020E2
:10ABCC0082B00190019B1B781AB2019B01331B7858
:10ABDC001B021BB213431BB29BB2184602B0704748
:10ABEC00AADF704700BF184600B585B001900198E8
:10ABFC00FFF7E6FF0346ADF80E30BDF80E3003F05C
:10AC0C000103002B14BF01230023DBB2184605B04F
:10AC1C005DF804FB00B585B001900198FFF7D0FFFB
:10AC2C000346ADF80E30BDF80E3003F00203002BD6
:10AC3C0014BF01230023DBB2184605B05DF804FBFA
:10AC4C0082B0034600918DF80730009A13786FF3A9
:10AC5C0003031370009A13786FF3071313709DF8A6
:10AC6C000730052B5BD801A252F823F091AC0200FF
:10AC7C00A7AC0200C1AC0200DBAC0200F5AC0200D8
:10AC8C000FAD0200009A13786FF303031370009A50
:10AC9C0013786FF30713137040E0009A13780121B7
:10ACAC0061F303031370009A1378012161F3071306
:10ACBC00137033E0009A1378012161F303031370CE
:10ACCC00009A1378022161F30713137026E0009A9F
:10ACDC001378012161F303031370009A1378032195
:10ACEC0061F30713137019E0009A1378022161F3D2
:10ACFC0003031370009A1378012161F30713137087
:10AD0C000CE0009A1378022161F303031370009A8C
:10AD1C001378022161F30713137000BF00BF00BF4B
:10AD2C0002B0704700B595B0034602910192ADF8A0
:10AD3C000E30029B9B78002B03D101238DF81E3023
:10AD4C0003E0029B9B788DF81E30029B1B88ADF8AC
:10AD5C001C3006AB03220021184610F069F8029B48
:10AD6C005B7C06AA11461846FFF76AFF029B9A7C89
:10AD7C0006AB013319461046FFF762FF029BDA7BE4
:10AD8C009DF81A3062F3C3038DF81A30029B1A7CBB
:10AD9C009DF81A3062F304138DF81A30029B1A7B5B
:10ADAC009DF81A3062F300038DF81A30029B1B7D5C
:10ADBC00002B01D0022200E001229DF81A3062F330
:10ADCC0042038DF81A300DAB1C220021184610F0EE
:10ADDC002FF8029B5B7B03F01003DBB2002B06D138
:10ADEC00029B5B7B03F02003DBB2002B24D004AB73
:10ADFC0003220021184610F01BF8029BDA7C04ABEE
:10AE0C00013319461046FFF71BFF9DF81030012245
:10AE1C0062F303038DF810309DF81030012262F3B9
:10AE2C0007138DF810309DF81230012262F34203A3
:10AE3C008DF8123004AB1293029B5B7B8DF834308F
:10AE4C00029B9B7B8DF8353008AB142200211846F1
:10AE5C000FF0EEFF07AB089306AB0993029B9B88A0
:10AE6C00ADF82C30029B9B68002B06D0029BDB8834
:10AE7C00ADF82830029B9B680C93029B9B69002BBE
:10AE8C004FD005AB0322002118460FF0D1FF029BD7
:10AE9C009B691B88ADF83C30029B9B695B88ADF8C5
:10AEAC003E30029B9B695B680E9305AB1193029B32
:10AEBC009B691B7B05AA11461846FFF7C1FE029B36
:10AECC009B695A7B05AB013319461046FFF7B8FE58
:10AEDC00029B9B699A7A9DF8163062F3C3038DF836
:10AEEC001630029B9B69DA7A9DF8163062F30413D4
:10AEFC008DF81630029B9B691A7A9DF8163062F316
:10AF0C0000038DF81630029B9B699B7B002B01D0B4
:10AF1C00022200E001229DF8163062F342038DF804
:10AF2C001630029BDB69002B02D0029BDB6910936D
:10AF3C0008AA0DA9BDF80E00019BFFF751FE0346B0
:10AF4C00184615B05DF804FBA0DF704700BF18462B
:10AF5C00A1DF704700BF1846ADDF704700BF184631
:10AF6C00B3DF704700BF1846B4DF704700BF184608
:10AF7C0000B583B00190019B002B03D106497220D0
:10AF8C00FBF7AEFB019B00221A60BFF35F8F00BF83
:10AF9C0000BF03B05DF804FB14B4030000B585B02A
:10AFAC000190019B002B03D10A498520FBF798FBEC
:10AFBC00012101980BF0BEFE0390BFF35F8F00BF21
:10AFCC00039B002B0CBF01230023DBB2184605B0FA
:10AFDC005DF804FB14B4030000B583B00190019B31
:10AFEC00002B03D10A499220FBF77AFB019B1B68CB
:10AFFC00012B03D006499320FBF772FBBFF35F8F45
:10B00C0000BF019B00221A6000BF03B05DF804FB77
:10B01C0014B40300024B00221A7000BF704700BF2B
:10B02C006C29002000B585B00190019B5B88184607
:10B03C0001F0ECFA03461A46019B9A800023039315
:10B04C0008E0084A039B52F8233001989847039B69
:10B05C0001330393039B002BF3D000BF00BF05B05B
:10B06C005DF804FB0423002082B00190019B9B79C6
:10B07C00012B0BD1019B1B79012B07D1019B5B8809
:10B08C0042F60212934201D1012300E0002303F0A7
:10B09C000103DBB2184602B0704700B589B0034615
:10B0AC000091ADF8063003AB00221A605A609A602A
:10B0BC00DA601A6108238DF80C30BDF80630ADF853
:10B0CC000E30009B059303AB1846FFF7ABFF00BF98
:10B0DC0009B05DF804FB000010B58AB00346ADF86A
:10B0EC00063000238DF8273003AB00221A605A601B
:10B0FC009A60DA601A61BDF80630ADF80E30BDF812
:10B10C0006304FF6FF72934261D0BDF806301846F8
:10B11C0000F0C6FF0890089B43F2020293424BD00A
:10B12C00089B43F2020293422DD8089B112B11D09D
:10B13C00089B112B27D8089B002B03D0089B0B2BAB
:10B14C000CD020E00F238DF80C3003AB1846FFF722
:10B15C0069FF32E001238DF827302EE010238DF8A3
:10B16C000C301C4A1C4BD31ADB081B0443F00203A3
:10B17C00BDF80620194918460EF0BEF903AB184667
:10B18C00FFF750FF19E0134A134BD31ADB081B04CB
:10B19C0043F0010408980DF0EBFC03461A46BDF889
:10B1AC0006300F4920460EF0B8F9BDF80630089964
:10B1BC001846FFF772FF00E000BF0A4B19789DF8A4
:10B1CC002720BDF806301846FFF762FC00E000BFF0
:10B1DC000AB010BDD4AF03005CAF030060B4030031
:10B1EC00E0B403007529002000B583B003460A467D
:10B1FC00ADF8063013468DF80530064B19789DF8DE
:10B20C000520BDF806301846FFF742FC00BF03B01E
:10B21C005DF804FB7429002010B58AB00346ADF824
:10B22C00063000238DF8273000238DF82630BDF82A
:10B23C000630184600F04CFE0890089B43F20202C0
:10B24C00934258D0089B43F2020293423AD8089B8F
:10B25C00862B17D0089B862B34D8089B112B0DD02E
:10B26C00089B112B2ED8089B002B03D0089B0B2B73
:10B27C0041D027E001238DF826303DE001238DF8E5
:10B28C00273039E003AB00221A605A609A60DA600A
:10B29C001A6107238DF80C30BDF80630ADF80E306E
:10B2AC001C4A1D4BD31ADB081B0443F00203BDF8E8
:10B2BC0006201A4918460EF01FF903AB1846FFF783
:10B2CC00B1FE19E0134A144BD31ADB081B0443F0EC
:10B2DC00010408980DF04CFC03461A46BDF80630E4
:10B2EC000F4920460EF019F9BDF80630089918469A
:10B2FC00FFF7D3FE00E000BF9DF82720BDF8063015
:10B30C0011461846FFF770FF9DF8263018460AB014
:10B31C0010BD00BFD4AF03005CAF030034B5030015
:10B32C006CB5030000B589B003460091ADF806304A
:10B33C0000238DF81F300DF116031846FFF710FE91
:10B34C000690069B002B04D02A494FF49970FBF70A
:10B35C00C7F90123ADF81C3040E00223ADF80830EA
:10B36C000023ADF80A3004AB039304A9BDF81C30DC
:10B37C0000221846FFF7F8FD0690069B002B01D023
:10B38C00069B32E09DF81F3083F00103DBB2002BEB
:10B39C0009D0BDF8103042F60522934203D10123A7
:10B3AC008DF81F3015E09DF81F30002B11D0BDF823
:10B3BC00103042F6021293420BD1009B039302AA67
:10B3CC00BDF81C10BDF806301846FFF7C5FD034646
:10B3DC000BE0BDF81C300133ADF81C30BDF8163055
:10B3EC00BDF81C209A42B8D30523184609B05DF865
:10B3FC0004FB00BFACB5030010B58AB00346ADF832
:10B40C00063001238DF8273000238DF82630BDF847
:10B41C000630184600F0F4FE0890089B43F20142F7
:10B42C0093426AD0089B43F2014293426BD8089B2B
:10B43C00112B29D8089B112B65D801A252F823F0A7
:10B44C00A1B4020013B5020013B5020013B502003B
:10B45C0013B5020013B50200EDB4020013B50200DF
:10B46C00CDB4020013B5020013B5020013B50200EF
:10B47C0013B5020013B5020013B5020013B5020098
:10B48C0013B5020045B50200089B43F20202934239
:10B49C0054D038E003AB00221A605A609A60DA602C
:10B4AC001A6111238DF80C30BDF80630ADF80E3052
:10B4BC0001238DF8263003AB1846FFF7B3FD3EE0B1
:10B4CC000DF10A02BDF8063011461846FFF72AFFA7
:10B4DC000890089B002B03D1BDF80A30002B2ED10D
:10B4EC0000238DF82730BDF80630184601F08EF891
:10B4FC000346184600F0CCFE21E0BDF80630184695
:10B50C00FFF7EAFD1BE0184A184BD31ADB081B04A3
:10B51C0043F0010408980DF02BFB03461A46BDF8C6
:10B52C000630134920460DF0F8FFBDF80630089997
:10B53C001846FFF7B2FD02E000BF00E000BF0D4B64
:10B54C0019789DF82720BDF806301846FFF7A0FAA9
:10B55C00094B19789DF82620BDF806301846FFF7E0
:10B56C0097FA00BF0AB010BDD4AF03005CAF030064
:10B57C00F8B50300762900207729002000B583B0A8
:10B58C0003460091ADF80630BDF806301846FFF7BB
:10B59C00A3FD00BF03B05DF804FB000008B5044B2D
:10B5AC001B78002203491846FFF7E2FA00BF08BDDA
:10B5BC007529002089B5020000B583B003460091BF
:10B5CC00ADF806300A48FFF7E9FC0346002B0CD017
:10B5DC00BDF806301846FFF71FFE0346002B03D1BB
:10B5EC000348FFF7F9FC00E000BF03B05DF804FB73
:10B5FC007029002000B583B003460091ADF80630E9
:10B60C000B4B1A78BDF8063011461846FFF710FAA6
:10B61C00034683F00103DBB2002B04D0BDF80630E7
:10B62C001846FFF7E9FE00BF03B05DF804FB00BF4E
:10B63C007729002008B5044B1B78002203491846D3
:10B64C00FFF796FA00BF08BD7629002001B602006C
:10B65C0000B583B00346ADF80630BDF80630184689
:10B66C0000F0AAFD0346002B07D0064B1978BDF855
:10B67C00063001221846FFF70BFA00BF03B05DF845
:10B68C0004FB00BF7629002000B587B0034600916B
:10B69C00ADF8063004AB0422002118460FF0C8FBAD
:10B6AC0042F6A623ADF8103001238DF812300D4B65
:10B6BC001B68039303AA04A9BDF806301846FFF7CC
:10B6CC0043FC0590059B002B07D1074B1978BDF85F
:10B6DC00063001221846FFF7DBF900BF07B05DF812
:10B6EC0004FB00BF38B603007929002000B585B0F3
:10B6FC000346ADF80630BDF80630184600F086FF5C
:10B70C000346184602AA0023092101F0FDFF034657
:10B71C00052B07D1054B1978BDF8063001221846C8
:10B72C00FFF7B6F900BF05B05DF804FB78290020DF
:10B73C0000B583B00B4B1B7800220B491846FFF762
:10B74C0017FA0190019B002B07D1084B1B780022A4
:10B75C0007491846FFF70CFA019000BF03B05DF8DB
:10B76C0004FB00BF74290020C5B502007829002015
:10B77C0095B6020000B583B00190019B1B78002B9D
:10B78C0011D1019B5B881846FFF7A6FC019B5B88D7
:10B79C001846FFF75DFF019B5B881846FFF7A6FF75
:10B7AC00FFF7C6FF00E000BF00BF03B05DF804FB6D
:10B7BC0000B589B00190019B1B78092B5ED1019BD0
:10B7CC005B7A002B5AD1019B1B7A082B47D0082B94
:10B7DC004DDC012B1BD0072B49D1019B9B881846B4
:10B7EC0000F0BEFF0346ADF81E30BDF81E304FF61C
:10B7FC00FF7293423DD0BDF81E3001211846FFF771
:10B80C00F3FCBDF81E301846FFF770FF31E0019BCA
:10B81C009B8803AA0121184602F016FD0690069B90
:10B82C00002B28D1049B1B78002B24D0019B9B88D8
:10B83C00184600F095FF0346ADF81630BDF81630EB
:10B84C004FF6FF72934216D00F4B1978BDF8163095
:10B85C0001221846FFF71CF9FFF7ECFE0BE00B4B2F
:10B86C001B68012B09D10948FFF7B6FB05E000BFA7
:10B87C0004E000BF02E000BF00E000BFFFF758FF8C
:10B88C0000BF09B05DF804FB762900207029002068
:10B89C0008B5FFF7BFFBFFF7B7F803461A462C4B6A
:10B8AC001A70FFF7B1F803461A462A4B1A70FFF7C5
:10B8BC00ABF803461A46284B1A70FFF7A5F8034657
:10B8CC001A46264B1A70FFF79FF803461A46244B6C
:10B8DC001A70FFF799F803461A46224B1A70FFF7B5
:10B8EC0093F803461A46204B1A70194B1B78182BE9
:10B8FC0017D0184B1B78182B13D0174B1B78182B01
:10B90C000FD0164B1B78182B0BD0154B1B78182B04
:10B91C0007D0144B1B78182B03D0134B1B78182B08
:10B92C000CD1124A124BD31ADB081B0443F001034F
:10B93C00104918460DF0D2FD032306E00E48FFF720
:10B94C0017FB0E4B01221A700023184608BD00BFCE
:10B95C0074290020752900207629002077290020E1
:10B96C0078290020792900207A290020D4AF0300FF
:10B97C005CAF03003CB60300702900206C2900204A
:10B98C0010B586B003460A46ADF8063013468DF85E
:10B99C00053003AB00221A605A600123ADF80C305D
:10B9AC0009238DF80E30194B1978BDF8063000229A
:10B9BC001846FFF76DF89DF80530002B01D0144B9D
:10B9CC0000E0144B0493BDF80630184600F01EFE40
:10B9DC000346184603AB0022194601F05DFF0590A3
:10B9EC00059B002B0FD00C4A0C4BD31ADB081B0405
:10B9FC0043F0020405980DF0BBF803461A460849BB
:10BA0C0020460DF079FD00BF06B010BD782900204E
:10BA1C00C0B70300C4B70300D4AF03005CAF03008E
:10BA2C00ACB6030000B58DB00190019B9B88ADF8BE
:10BA3C002C30019B1B88353B1F2B00F2688101A227
:10BA4C0052F823F061BB020063BC02001BBD020074
:10BA5C001BBD02001BBD02001BBD02001BBD020072
:10BA6C001BBD02001BBD02001BBD02001BBD020062
:10BA7C001BBD02001BBD02001BBD02001BBD020052
:10BA8C001BBD02001BBD02001BBD02001BBD020042
:10BA9C001BBD02001BBD02001BBD02001BBD020032
:10BAAC001BBD02001BBD02001BBD02001BBD020022
:10BABC003DBB02001BBD0200D1BA02001BBD02003F
:10BACC00DDBA0200BDF82C301846FFF705FB1EE16D
