:0200000270008C
:10800000000001205D8307004583070047830700C8
:10801000498307004B8307004D83070000000000E1
:1080200000000000000000000000000059D107001F
:1080300051830700000000005383070055830700A9
:1080400057830700578307005783070057830700AC
:10805000578307005783070057830700578307009C
:10806000578307005783070057830700578307008C
:10807000578307005783070057830700578307007C
:1080800039B4070057830700578307005783070059
:10809000578307005783070061D307005783070002
:1080A000578307005783070057830700578307004C
:1080B00057830700578307000000000000000000FE
:1080C000578307005783070057830700578307002C
:1080D000EDB007005783070057830700000000003A
:1080E0000000000000000000000000000000000090
:1080F0000000000000000000000000000000000080
:10810000000000000000000000000000000000006F
:10811000000000000000000000000000000000005F
:10812000000000000000000000000000000000004F
:10813000000000000000000000000000000000003F
:10814000000000000000000000000000000000002F
:10815000000000000000000000000000000000001F
:10816000000000000000000000000000000000000F
:1081700000000000000000000000000000000000FF
:1081800000000000000000000000000000000000EF
:1081900000000000000000000000000000000000DF
:1081A00000000000000000000000000000000000CF
:1081B00000000000000000000000000000000000BF
:1081C00000000000000000000000000000000000AF
:1081D000000000000000000000000000000000009F
:1081E000000000000000000000000000000000008F
:1081F000000000000000000000000000000000007F
:10820000314932480A1A02D0072291438D4630493B
:1082100030480A1A06D00722914381F309880222C6
:1082200082F314882C482D492D4A00F03CF82D4843
:108230002D492E4A00F037F82D482E492E4A00F0DD
:1082400032F82E482E492F4A00F02DF82E482F499B
:108250002F4A00F028F82F482F49304A00F023F821
:108260002F483049304A00F01EF83048304900228B
:1082700000F024F82F483049002200F01FF82F4A60
:1082800090471F481F49884205D00268043003B454
:10829000904703BCF7E700208646EC46002000210B
:1082A000274A9047FEE7884207D0521A05D0037844
:1082B00001300B700131013AF9D17047884202D088
:1082C00002700130FAE770470000012000F800203A
:1082D000000001200000012030DB07007C59002055
:1082E000B4590020B8830700B8830700F6D507000B
:1082F00030DB07007C5900207C59002064D6070041
:1083000064D6070064D6070064D6070064D6070069
:1083100064D6070064D6070064D6070030DB070088
:1083200068DB0700B4590020B4590020B45900207C
:10833000647F0020647F0020647F00208583070025
:108340002D9D0700FEE7FEE7FEE7FEE7FEE7FEE7FE
:10835000FEE7FEE7FEE7FEE700F002B8FFF7FCBF2E
:108360000F484FF00701884385460E4880470E4866
:10837000016841F470010160BFF34F8FBFF36F8F4D
:10838000FFF73EBF09480A490A4A884207D0521AF5
:1083900005D0037801300B700131013AF9D17047F3
:1083A0000000012009B5070088ED00E050D6070065
:0883B000685900207C590020EF
:1083B8004B1C30B5DB00044612F003009BB20DD114
:1083C800074D2A601A44074B1A60074B1870074B71
:1083D8001870074B1C80074B198030BD0720FCE73D
:1083E800BC590020B8590020B4590020C4590020B5
:1083F800C0590020C25900202DE9F743DFF8BC809E
:10840800B8F800308B4206460D46174647D300247D
:108418000DF107008DF8074000F080F8224B234A41
:1084280023481B78008892F800C084455FFA8CF1D5
:1084380038BF0131DBB238BFCCB2A34228D01478A0
:108448001178CBB2884286BF0133DBB200231370A8
:108458009DF8070000F086F84FF6FF739C4220D085
:10846800144B1B6843F8347003EBC4099EB195B1F3
:10847800114BB8F800001B682A46314604FB00304F
:1084880005F02CF8A9F80450002003B0BDE8F083EB
:108498004FF6FF74DCE70020A9F80400F5E709208F
:1084A800F3E70420F1E700BFC4590020B4590020C5
:1084B800C2590020BC590020B8590020C0590020DA
:1084C80070B5104C104D22782B789A4200D170BDAF
:1084D8000E480F4A2378126806880E4802EBC3013B
:1084E800006852F83320898803FB060090470A4940
:1084F80022780988D3B2914286BF0133DBB20023C8
:108508002370E0E7C4590020B4590020C059002066
:10851800BC590020B8590020C259002070B5EFF3AB
:10852800108672B60C4A9468012384B993600B4B89
:108538000B4DD3F8801029401160C3F88050D3F850
:10854800841051604FF0FF32C3F884202346037033
:1085580006B962B670BD00BFC859002000E100E04E
:10856800FC06FFBD084B9A6810B55AB150B9EFF335
:10857800108172B6054A1C6814605C685460986083
:1085880001B962B610BD00BFC859002000E100E083
:1085980030B53AB11368DB430A4D0144814204D136
:1085A800D84330BD4FF0FF33F6E710F8012B5340A6
:1085B800082213F0010418BF2C46013A84EA530339
:1085C800F7D1EBE72083B8ED10B561B1B2FBF3F456
:1085D80003FB1424A4B244B9C0E900148460828166
:1085E800C381204610BD0E20FCE70920FAE782B0BF
:1085F80050E8022FC188B2EB324F4FF0000317BF8B
:1086080092B241EA014142EA014104E04268B2EB18
:10861800324F08BF012340E80212002AE8D18DF842
:1086280007309DF80730002B0CBF1120002002B046
:10863800704737B550E8013F9DB2C4892544848905
:10864800A54228BF2D1B0489A54202BFBFF32F8F67
:10865800002207E0C5EA030540E80154002CE9D1EF
:108668004FF001028DF803200193019A0A609DF8EA
:10867800031001F0FF0321B1006810FA82F003B083
:1086880030BD1846FBE70A884B889A4209D150E862
:10869800012FC2EA024240E80123002BF7D1012052
:1086A80070470020704737B550E8023F1FFAA3F51E
:1086B800C488A54202BFBFF32F8F00220DE0C489F2
:1086C80025448489A54228BF2D1BC3EA054540E8F7
:1086D8000254002CE8D14FF001028DF803200193D9
:1086E800019A0A609DF8031001F0FF0321B10068A8
:1086F80000EB124003B030BD1846FBE70A884B88F0
:108708009A4209D150E8022FC2EA224240E80223E5
:10871800002BF7D1012070470020704710B50346A1
:1087280053E8000F40EA010243E8002494F0000FE8
:10873800F6D110BD10B5034653E8002F02EA010038
:1087480043E8000494F0000FF6D110BD0121FFF7B3
:10875800E5BF0021FFF7EEBF10B590B1D0E90123C6
:1087680001689B1ADBB20A60013BDBB2FF2B02688F
:1087780002D10020107110BD11684C1C14600B70E0
:10878800F2E70E20F7E737B5054600240DF107009C
:108798008DF80740FFF7C2FE2A68696813688B42A4
:1087A8000ED9591E116013F8013C288AEC6800FBA9
:1087B8000344AB685B1A1179DBB2994238BF137175
:1087C8009DF80700FFF7CEFE204603B030BD37B551
:1087D800054600230DF107000C468DF80730FFF71A
:1087E8009DFE2A681368591C1160EA68A41A2A8A2F
:1087F800B4FBF2F41C709DF80700FFF7B3FE03B05A
:1088080030BD0B6801601146184710B40468E4686D
:10881800A4465DF8044B604710B404682469A44674
:108828005DF8044B6047000070B550B90E4D0F4C11
:108838000026641B1423B4FBF3F4B44208D10020CF
:1088480010E00368002BF1D0BDE87040DB691847E1
:108858002B6813B901361435EFE7DB6928469847CA
:108868000028F7D070BD00BF685900207C5900204F
:10887800014B43600020704764D6070008467047E4
:1088880000207047024B1868003818BF0120704755
:10889800D459002008B50248FFF75BFF002008BD47
:1088A800D459002008B510461A4604F017FE0020D7
:1088B80008BD00002DE9F041804686B011480F46FA
:1088C80016461D46FFF742FF0446C8B9AA083146B6
:1088D800384601F0BBF80B48FFF73BFFD8F80830E3
:1088E80053B101228DF800200C9A0592CDE9014779
:1088F800CDE9036568469847204606B0BDE8F08193
:108908001124F9E7D45900202DE9F043814687B0B6
:1089180014480E4615469846FFF718FF0446F0B966
:108928000746BD4215D10F48FFF713FFD9F80830A5
:108938005BB102228DF800200022CDE90126CDE9A5
:108948000325CDF8148068469847204607B0BDE84F
:10895800F08306EB073001F04BF80137E1E711240B
:10896800F3E700BFD459002029DF704728DF70479C
:1089780070B503689E6886B004460D466EB1142231
:108988000021684604F0E0FDA3680593237901956A
:108998002BB1012B0DD06846B04706B070BD01233E
:1089A8008DF8003023690293E368039363690493A5
:1089B800F1E702238DF80030E3681B030293F5E723
:1089C8000846704700207047024B187A003818BFD5
:1089D80001207047C45B0020034B187A0122B0FACB
:1089E80080F05A7440097047C45B002008B51046EF
:1089F8001A4604F073FD002008BD000008B51422D3
:108A08000021044804F0A0FD0348FFF7F0FD002012
:108A180008BD00BFC45B0020B45B002010B5094C42
:108A2800094B43602046FFF791FE48B904F07AFCF1
:108A3800064920741C2306484FF4EE72FFF7C4FD64
:108A4800002010BDC45B002090D60700D859002034
:108A5800B45B002038B5224C224D237A3BB9224919
:108A68002248FFF720FE286008B9606038BD02235D
:108A780023722B681A7972B1012A22D0286803213F
:108A8800FFF776FF00232372636017491748BDE894
:108A98003840FFF733BED3E90520121A142AD3E968
:108AA800031328BF14229208012A014438BF012267
:108AB8001844FFF759FF50B11128DFD10123237261
:108AC800D4E7D3E903031844FFF750FFF3E7237C07
:108AD800002BCBD1BDE83840022000F009B800BF18
:108AE800C45B0020DC5B0020D85B0020B45B002066
:108AF80038B5224C237A002B3FD0022B09D103280A
:108B08002ED01F4B00221B68E2601A793AB1012A65
:108B180020D0637C6BBBBDE83840FFF79BBFD3E92F
:108B280005128D1A142D94BF521914329A6191426C
:108B3800EFD102284FF0000308BF19462372104BEB
:108B480018BF0D211868FFF713FF0E490E48FFF7ED
:108B5800D5FDDEE71A6901321A615B699A42E7E7D7
:108B6800E3680133082B01D8E360D2E70023E36010
:108B7800DFE7BDE8384004F0C5BB38BDC45B002062
:108B8800DC5B0020D85B0020B45B0020831E012B37
:108B980001D8FFF7ADBF704700F0FD03012B08D1E6
:108BA800044B00225A74421E504250411874FFF779
:108BB80051BF7047C45B002010B5064C201DFFF75D
:108BC800C5FD28B9637C1BB9BDE81040FFF742BF5B
:108BD80010BD00BFC45B00202DE9F34180460D465F
:108BE800104801A916461F46FFF723FD0446B0B1F9
:108BF80018220021043004F0A7FC2D0B0123237157
:108C080001A90848C4F80080A760E5606661FFF71D
:108C18003AFDFFF7D1FF002002B0BDE8F081042043
:108C2800FAE700BFB45B00202DE9F34180460F4608
:108C38000F4801A916461D46FFF7FBFC0446A8B1DC
:108C480018220021043004F07FFC089BA36001A9CE
:108C5800C4E903670648C4F800806561FFF713FD9F
:108C6800FFF7AAFF002002B0BDE8F0810420FAE770
:108C7800B45B0020D1E90032934208BF00230160B1
:108C880043607047436843B10268916852680B4477
:108C98009342436004BF0023436070472DE9F04FBF
:108CA800C9B008AA01F1400514464B780E781B0498
:108CB80043EA0663CE7833438E78043143EA0623C9
:108CC8008D4244F8043BF0D11024916B16464FEACC
:108CD800F14383EA714383EA9123716A366852F853
:108CE800045F31440B444FEAB54181EAF51181EA4A
:108CF800D50101340B44402CD363E6D1D0E914E309
:108D08000093836D0193C36D0293036E0393436EC7
:108D18000493836E0593C36E0693DDE9057ADDE956
:108D2800031CDDE901592B4B009E079374464FF055
:108D38000008079A08AB52F804BB53F8283007928A
:108D48004FEAF12282EAB1129B4482EA71625A44E4
:108D580027EA010301EA0C0B83EA0B031A44524485
:108D680086EA05034FEA743A06EA050B8AEAB40A6A
:108D780023408AEAB45A83EA0B0308F101085344F2
:108D8800B8F1400F02EB090B1344A946BA4619D1B2
:108D980073440365009B23444365019B3344836507
:108DA800029B2B44C365039B5B440366049B0B44F3
:108DB8004366059B63448366069B3B44C36649B090
:108DC800BDE8F08F674635468C46264659461C4610
:108DD800AFE700BFBCD6070030B5E0B10F4A104975
:108DE80000240025C0E91245C0E914120D4C0E4AB2
:108DF8000E4DC0E916420E4AC0E918520D4A826665
:108E080002F17452A2F523020023A2F692420364EF
:108E1800C266184630BD0E20FCE700BF85AE67BBB2
:108E280067E6096A72F36E3C3AF54FA57F520E5118
:108E38008C68059BABD9831F70B5F0B1DAB90020F7
:108E48001CE00C468D180026AC42F8D0036C14F8D0
:108E5800012BC2540133402B0364F5D10146FFF7BF
:108E68001DFFD0E9123213F5007342F10002C0E988
:108E780012320664E8E70029E3D10E2070BDF8B588
:108E88000D4617460446002875D0002973D0066C95
:108E98008022731C372EA25518443ED8C6F13702DB
:108EA800002104F051FBD4E912230821E6FB012339
:108EB800C4E9122312BAE26323FA01F284F83B30C0
:108EC80084F83A201A0C1B0E214684F8392084F8BD
:108ED80038302046FFF7E2FE691E6FB30023E26ECA
:108EE800DA4001F8012FA26EDA400A71626EDA40A8
:108EF8000A72226EDA400A73E26DDA400A74A26DD1
:108F0800DA400A75626DDA400A76226DDA40083373
:108F1800202B0A77E3D10020F8BD402BC6F13F0291
:108F28004FF0000188BF002204F00EFB21462046C6
:108F3800FFF7B4FE3822B3E71823226DDA4001F8B0
:108F4800012F626DDA400A71A26DDA400A72E26D91
:108F5800DA400A73226EDA400A74626EDA400A75E1
:108F6800A26EDA400A76E26EDA40083B13F1080F87
:108F78000A77E2D1CFE70E20CEE743689B6818470F
:108F880008B5436808305A7900F07DFE002008BD16
:108F98002DE9F0410C469CB008461F460392FFF7A6
:108FA800ECFFD4F80480039998F80550BD4228BF17
:108FB8003D4606462A4604A800F05AFE98F80520C1
:108FC80022990CA800F05FFE00960CAB2A4604A973
:108FD80004F1080001F02EFD002848F2425018BFA5
:108FE80000201CB0BDE8F0810023C0E902328B8864
:108FF8001A44B1F9063002611A44C0E9001142610D
:109008000888003818BF012070474268118870B579
:109018000346002937D0148A02F1100141602CB9A7
:10902800C2680168FFF7E0FF204670BD907811899B
:109038001C6900F03006302E13D1957C05F0300500
:10904800302D1AD19188611A19610021908AB2F9DC
:109058001620084419690144196111445961012015
:10906800E3E700F0F004202C07D150894143002E9B
:10907800ECD1986801309860E8E700F0C0008028DB
:1090880008BF0421F3E70846CFE770B546680446F1
:109098000D4663681A88AA4204D19B7803F00F032F
:1090A800082B07D12046FFF7B0FF6368B342F0D121
:1090B800002070BD0120FCE743681A44426011B1EA
:1090C80001399A4201D10120704713F8010B01F8C8
:1090D800010FF6E770B54568AA7802F00F06082E6A
:1090E80086B003461FD103691C6800260CB906B078
:1090F80070BD236862689D68267329466846FFF735
:1091080073FF6368049304F10C030593AB7803F0D1
:10911800C003802B08BF231D684608BF0493FFF7D0
:10912800D9FFA468E2E712F0C00122D102F03000B2
:1091380010280CD15A691170072EEC6818690BD1E8
:109148000146204606B0BDE8704000F01AB8900607
:10915800F2D55B691980CAE72A89214624B106B08D
:10916800BDE8704004F0BAB906B0BDE8704004F03C
:10917800EBB98029BBD10069002192060160B6D500
:10918800E7E77FB50A4601466846FFF72DFF30B18D
:109198006846FFF79FFF6846FFF737FFF7E707B016
:1091A8005DF804FB836810B504460BB9002010BDB8
:1091B8000368012298470028F8D0A368013BA36000
:1091C800F5E72DE9F3410F460DF107018046FFF75A
:1091D800E9FF054620B90025284602B0BDE8F08120
:1091E8009DF907309DF80740002B13DA04F07F043F
:1091F80007260DF107014046FFF7D4FF0028EAD003
:109208009DF8072002F07F03B3401C43130606F1C4
:10921800070601D43C60DFE7232EEAD1DBE7000034
:1092280030B5044685B01546A9B90268114B9A4273
:1092380011D0102D06D82A4669462046FFF7F0FFC0
:1092480005B030BD102269462046FFF7E9FF002827
:10925800F6D0103DEDE7A368AB4201D20020EFE75E
:1092680023682A46204698470028F7D0A3685B1B46
:10927800A360E5E7C19007002DE9F3410F4601A976
:1092880080461646FFF79DFFA0B1019C621C4FF077
:10929800000504D2BB7803F0C003802B01D1284617
:1092A80008E03B899342FAD3224631464046FFF70D
:1092B800B7FF355502B0BDE8F08173B50D4601A979
:1092C80006461446FFF77DFFB0B1019AB2F5803F1C
:1092D80012D2AB7803F0C003802B02F102010BD04D
:1092E8002B898B4208D32146304621F8022B02B045
:1092F800BDE87040FFF794BF002002B070BD0000C9
:1093080010B5034C82600022C0E90041C26010BD64
:10931800C19007002DE9F341002580460E462F46EF
:109328002C460DF107014046FFF73CFFC0B19DF800
:1093380007C0A4F120030CF07F02C4F1200102FA57
:1093480003F322FA01F10B43A2401CF0800F45EA17
:10935800020547EA030704F1070404D1C6E90057E8
:1093680002B0BDE8F081462CDBD10020F8E737B524
:109378000D4669461446FFF7CDFF70B12B89082BBF
:109388000DD1DDE90032C4E90032DDE90001914286
:1093980008BF98420CBF0120002003B030BD042B49
:1093A80003D1009B23600022EFE7022B03D1009B2F
:1093B80023809BB2F7E7012B04D1009B237003F0B5
:1093C800FF03F0E70020E8E737B50D466946144685
:1093D800FFF7A0FF30B12B89082BDDE9001203D17C
:1093E800C4E9001203B030BD042B4FEAE17009D183
:1093F80021600B460246824208BF8B420CBF012007
:109408000020EFE7022B03D10BB22380DA17F2E733
:10941800012B02D14BB22370F8E70020E2E7F7B541
:109428001F4600233B700D460B70136001A90446CC
:109438001646FFF7C6FE30B9A36813B901233B707F
:10944800002003B0F0BD019C002CF7D0E30804F025
:10945800070433602C70F4E713B50446052921D8B6
:10946800DFE801F0030F1720201E012201A9204682
:10947800FFF7D6FE18B19DF90430002BF5DB02B0DA
:1094880010BD08220021204602B0BDE81040FFF7B9
:10949800C7BE01A9FFF795FE0028F0D0019AF1E7B1
:1094A8000422EFE70020EAE773B50D4601A9044658
:1094B800FFF787FE064618B90026304602B070BD91
:1094C80094E80F0085E80F0001998A42F4D3A96057
:1094D800A3685B1AA360F0E72DE9F0435668B378F8
:1094E80013F0C00489B007468C46154603D0402CBB
:1094F80069D000240CE003F00F02604903F0300348
:10950800202B51F8228025D006D8E3B1102B17D094
:10951800204609B0BDE8F083302BF9D16B6931885A
:109528001980072A09D121463289286904F00CF8E4
:109538006B682969D868FFF724FE2A69696840E0E2
:109548006B6901221A702A693146434609B0BDE8A1
:10955800F0431847BCF1020FD5F8149024D1042A1F
:1095680022D804A9FFF7A0FF04460028C1D0069B13
:109578002BB16968B9F800304A899A4205D8059B29
:109588007B60069B002BC3D0B3E708892A6903FBDD
:10959800002204A8C04728B1B9F800300133A9F85F
:1095A8000030E4E70446EAE7B9F8003072899A42E5
:1095B8009FD931892A69581C03FB0122A9F80000A8
:1095C80031463846C1E7D2F81080464656F8043B83
:1095D80023B909B0BDE8F043FFF73EBF022914D113
:1095E80004A9FFF761FF002883D0D8F80030696824
:1095F800324604A89847044600283FF47AAF069BF1
:10960800002BF2D1059B7B6082E7012926D0052932
:109618002CD000297FF46DAF0C460DF104090134FC
:109628000B2C3FF466AF012249463846FFF7F8FD98
:1096380000283FF45EAF19F9013B002BEFDB104B1C
:10964800049301ABCDE90534002307936968D8F882
:109658000030324604A89847044659E7082201A971
:10966800FFF7DEFD08240028E9D142E704220DEBCC
:109678000201FFF7D5FD0424F5E700BFC8D70700AE
:10968800C19007002DE9F04F91B00446002604A8C8
:10969800CDE90266FFF7A8FCA3683BBBDDE905340A
:1096A80004A89D78FFF7B1FC0028F7D115F0300F1A
:1096B80003D1059B1B8803B10134002C00F0AD8059
:1096C800630902A90022934240F0A08010AA02EB8D
:1096D800830304F01F0453F8383CC4F120044FF00E
:1096E800FF30E040C31A584258410DE00DF1030322
:1096F80001AA0DF102012046FFF791FE38B99DF845
:109708000330002BCAD1002011B0BDE8F08F019FB3
:1097180004A83946FFF7B9FC002850D1B742C0F079
:109728008180059D059A937803F00F03082B00F0BC
:10973800828004A8FFF769FC059B9D42F2D14FF097
:10974800FF36B7429DF802A06CD3089BD4F8088076
:109758001D684FF00109A368002D60D098459BD182
:109768002B68D3F800B0BBF1000F08D053463A4637
:1097780029462046D8470028C5D0AD68EBE7D3F87E
:1097880008B0BBF800309F42F7D16A6859460AA86A
:10979800FFF72AFC6B680E9305F10C030F939BF8F7
:1097A800023003F0C003802B04BF2B1D0E930AAABE
:1097B80085F80C9051462046FFF78EFEDBE7059BA7
:1097C8009B7813F0300F0FD1069A3F2A0CD8510915
:1097D80010AB03EB810102F01F020123934051F803
:1097E800382C134341F8383CD4F80C809DF80250CB
:1097F800B8F1000F04D004AB2A4639462046C047CA
:1098080004AA29462046FFF767FE10E051F8045BDA
:1098180001357FF479AF013255E7012074E79845A7
:109828007FF43AAF9DF802102046FFF715FE002896
:109838007FF432AF67E7168883E737B50C460546ED
:10984800114620460192FFF79CFC019A21462846C2
:1098580003B0BDE83040FFF715BF70B586B0CE68DD
:1098680001920C4602A90546FFF71EFE68B1E068A2
:1098780058B1A378019A03F03003202B314602A88F
:1098880005D1FFF7DAFF039B6B6006B070BDFFF7E9
:10989800F9FEF8E713B50C466946FFF73BFD60B1E2
:1098A800DDE900134A0842EAC372C9074FEA5303C5
:1098B80044BFD243DB43C4E9002302B010BD37B52F
:1098C8000D4669461446FFF7E5FF70B12B89082B52
:1098D8000DD1DDE90032C4E90032DDE90001914231
:1098E80008BF98420CBF0120002003B030BD042BF4
:1098F80003D1009B2360DA17EFE7022B03D1BDF9F0
:1099080000302380F7E7012B03D19DF90030237045
:10991800F1E70020E9E713B504220C460DEB02013C
:10992800FFF77EFC08B1019B236002B010BD114611
:10993800FFF7F1BF13B508220C466946FFF770FC24
:1099480018B1DDE90023C4E9002302B010BD1146B7
:10995800FFF7F0BF044B1A5C012393404FF0A0427D
:10996800C2F80C35704700BFECD70700044B1A5CEF
:10997800012393404FF0A042C2F80835704700BF5A
:10998800ECD7070008B50020FFF7F0FF0120FFF72C
:10999800EDFF0220FFF7EAFFBDE808400320FFF7CC
:1099A800E5BFC20708B501460CD54FF0A043032216
:1099B800C3F84427C3F84827C3F84C27C3F85027EF
:1099C800FFF7E0FF8B070AD54FF0A0430C22C3F83E
:1099D8003427C3F83827C3F83C27C3F8402708BD05
:1099E800024AD2F80034002BFBD0704700E0014057
:1099F8000A4908B50223C1F80435BFF36F8FBFF3D6
:109A08004F8FC1F80805FFF7EBFF0023C1F80435B5
:109A1800BFF36F8FBFF34F8F08BD00BF00E0014059
:109A280010B5094C0123C4F80435BFF36F8FBFF399
:109A38004F8F0160FFF7D4FF0023C4F80435BFF34C
:109A48006F8FBFF34F8F10BD00E0014070B50E4E11
:109A580001231546C6F80435BFF36F8FBFF34F8F48
:109A68000024AC4207D10023C6F80435BFF36F8F3A
:109A7800BFF34F8F70BD51F8243040F82430FFF702
:109A8800AFFF0134EDE700BF00E0014028B139B174
:109A98000023C1E900301846704748F2105070475B
:109AA80048F21350704730B1036848F240508B4277
:109AB80008BF0020704748F21050704728B148F29C
:109AC8001150914208BF0020704748F2105070476B
:109AD80070B506460C461D46FFF7D8FF50B9B37956
:109AE8004AB1AB420AD111462046FFF749FA08B9F4
:109AF800044B236070BD48F21050FBE748F2115048
:109B0800F8E700BF7052464D2DE9F0470C4606466F
:109B18000F492046DDE9088915461F46FFF7C3FFB0
:109B2800A0B963685A79494652004046FFF7C6FF14
:109B380060B94DB1CDF820803B462A4621463046D3
:109B4800BDE8F047FFF724BA48F21050BDE8F087A7
:109B58007052464D10B5044638B149B10B684160A2
:109B6800984708B9044B236010BD48F20150FBE741
:109B780048F21050F8E700BF6E524648F0B413465A
:109B880048B10768094EB7420AD161B12AB14368A2
:109B9800F0BC5B68184748F201531846F0BC7047A0
:109BA80048F20253F9E748F21053F6E76E52464876
:109BB800F0B460B107680C4EB7420CD171B143687C
:109BC8001568DC68A5420CD3F0BC9B68184748F2BE
:109BD8000150F0BC704748F20250FAE748F21350BF
:109BE800F7E748F21450F4E76E524648F7B50446D2
:109BF800DDE9086715460193FFF7ACFF68B9019ADC
:109C080029462046FFF7BAFF38B93A46314620467A
:109C180003B0BDE8F040FFF7CBBF03B0F0BD0000D4
:109C2800F8B50A4F0A4C0B4EE41B0123E4083370C5
:109C38000025A54203D1022333700020F8BD57F850
:109C4800353098470028F9D10135F2E7F8D50700F3
:109C5800F8D50700E05B002001390144814200D2B9
:109C6800704703780A7800F8012B01F80139F5E705
:109C7800013A02440139824200D2704711F8013F8B
:109C880002F80139F7E770B516460D46FFF7F0FF01
:109C98003246A9193044BDE87040FFF7E9BF38B52E
:109CA8000D460446FFF7D8FF29466019BDE838403D
:109CB800FFF7D2BFBFF34F8F0549064BCA6802F4BE
:109CC800E0621343CB60BFF34F8F00BFFDE700BFD7
:109CD80000ED00E00400FA0508B507281BD8DFE806
:109CE80000F004121A1A1A041A040120FFF759FE88
:109CF8000020FFF72FFE0120FFF72CFEBDE80840EB
:109D08000220FFF733BE0120FFF730FEBDE8084010
:109D18000220FFF71FBE08BD08B5FFF7CBFF08B547
:109D2800FFF7C8FF08B501F04DFB4FF48051002044
:109D380001F00FF908B1FFF7BDFF0548C0F5FC2198
:109D480001F007F90028F6D1024801F029F8F2E7F6
:109D580000800700E19C07008B1810448B4200D15B
:109D6800704713F8012D00F8012DF7E700000000F7
:109D78000000000000000000C3F10803DB0070B51C
:109D880001330446002003A55B1920C940CAAD1958
:109D980020C4184720C940CA754120C420C940CAF8
:109DA800754120C420C940CA754120C420C940CA91
:109DB800754120C420C940CA754120C420C940CA81
:109DC800754120C420C940CA754120C4404170BDB6
:109DD8000000000000000000C3F10803DB0070B5BC
:109DE8000133002403A500BF5B1920C940CAAD1B7D
:109DF80020C0184720C940CAB54120C020C940CA60
:109E0800B54120C020C940CAB54120C020C940CAB8
:109E1800B54120C020C940CAB54120C020C940CAA8
:109E2800B54120C020C940CAB54120C06441B4FA38
:109E380084F0400970BD00BF2DE9F04F08B4F8CA9E
:109E480004B451F8042BA3FB028940F8048B4FF0AB
:109E5800000AE4FB629A4FF0000BE5FB62AB4FF09F
:109E6800000CE6FB62BC4FF0000EE7FB62CE51F837
:109E7800042B4FF00008E3FB628940F8048BE4FBF5
:109E8800629AE5FB62ABE6FB62BCE7FB62CE51F887
:109E9800042B4FF00008E3FB628940F8048BE4FBD5
:109EA800629AE5FB62ABE6FB62BCE7FB62CE51F867
:109EB800042B4FF00008E3FB628940F8048BE4FBB5
:109EC800629AE5FB62ABE6FB62BCE7FB62CE51F847
:109ED800042B4FF00008E3FB628940F8048BE4FB95
:109EE800629AE5FB62ABE6FB62BCE7FB62CE40F838
:109EF800049B40F804AB40F804BB40F804CB40F89E
:109F080004EB0CBC052B00F01E810C68A0F11400BA
:109F1800A1F11401A2F1140252F804EB4FF000056C
:109F280050F8046BE4FB6E5652F804EB50F8047BCF
:109F3800E4FB6E6752F804EB50F8048BE4FB6E7890
:109F480052F804EB50F8049BE4FB6E8952F804EBDA
:109F580050F804ABE4FB6E9AA0F1140052F8044BDD
:109F680051F804EB4FF0000CE4FB6EC540F804CB4D
:109F780051F804EBE4FB6E5640F8045B51F804EB2F
:109F8800E4FB6E6740F8046B51F804EBE4FB6E7871
:109F980040F8047B51F804EBE4FB6E8940F8048B2D
:109FA80051F804EBE4FB6E9AA0E80006062B00F0DB
:109FB800CA800C68A0F11800A1F11801A2F11802DA
:109FC80052F804EB4FF0000550F8046BE4FB6E56B2
:109FD80052F804EB50F8047BE4FB6E6752F804EB8C
:109FE80050F8048BE4FB6E7852F804EB50F8049BAD
:109FF800E4FB6E8952F804EB50F804ABE4FB6E9A6C
:10A0080052F804EB50F804BBE4FB6EABA0F1180067
:10A0180052F8044B51F804EB4FF0000CE4FB6EC50A
:10A0280040F804CB51F804EBE4FB6E5640F8045BAF
:10A0380051F804EBE4FB6E6740F8046B51F804EB4D
:10A04800E4FB6E7840F8047B51F804EBE4FB6E897E
:10A0580040F8048B51F804EBE4FB6E9A40F8049B3B
:10A0680051F804EBE4FB6EABA0E8000C072B6AD0B8
:10A0780008B40C68A0F11C00A1F11C01A2F11C029B
:10A0880052F804EB4FF0000550F8046BE4FB6E56F1
:10A0980052F804EB50F8047BE4FB6E6752F804EBCB
:10A0A80050F8048BE4FB6E7852F804EB50F8049BEC
:10A0B800E4FB6E8952F804EB50F804ABE4FB6E9AAB
:10A0C80052F804EB50F804BBE4FB6EAB52F804EB17
:10A0D80050F804CBE4FB6EBCA0F11C0052F8044B12
:10A0E80051F804EB4FF00003E4FB6E3540F8043BF5
:10A0F80051F804EBE4FB6E5640F8045B51F804EBAE
:10A10800E4FB6E6740F8046B51F804EBE4FB6E78EF
:10A1180040F8047B51F804EBE4FB6E8940F8048BAB
:10A1280051F804EBE4FB6E9A40F8049B51F804EBF9
:10A13800E4FB6EAB40F804AB51F804EBE4FB6EBCF7
:10A14800A0E8001808BCBDE8F08F002310B51C4635
:10A158005AB2914200DC10BD40F823400133F7E7C2
:10A1680010B500231A465CB2A14203DCB2FA82F0B1
:10A17800400910BD50F8234001332243F3E74A1148
:10A18800012350F8220001F01F0103FA01F10840F1
:10A198007047013910B549B2041D0A06CBB204D480
:10A1A800013954F82120002AF7D001335BB273B18A
:10A1B80003F18042013A50F82220002022B9013BE5
:10A1C80000EB431318B210BD52080130F6E71846E9
:10A1D800F9E710B500235CB2A24200DC10BD51F8CB
:10A1E800234040F823400133F5E710B5013A52B255
:10A1F800130601D5002010BD50F8224051F8223036
:10A208009C4205D802F1FF32F2D24FF0FF30F2E75C
:10A218000120F0E700EB81010023884200D370475A
:10A2280051F8042D43EA52030B60D307F5E737B51D
:10A238001D469DF9183001930446FFF79DFD019BCB
:10A2480038B91A4621462846FFF7CFFF0128019B57
:10A2580007D02A462146204603B0BDE83040FFF724
:10A26800BBBD03B030BD37B51D469DF9183001930D
:10A278000446FFF7B1FD019B38B12A462146204626
:10A2880003B0BDE83040FFF777BD03B030BD2DE91E
:10A29800F04FB5B004AC9DF9F8501F4680462B46E8
:10A2A8002046FFF7C9FD24AB29463846CDE90234DC
:10A2B800FFF76FFFC0EB851004B2002C2146B8BF32
:10A2C80004F11F01634203F01F0341F3471104F037
:10A2D8001F0614A858BF5E42FFF737FF002E08B2CA
:10A2E8002BDD14AB002203EB8000C6F1200E1346D1
:10A2F800AB4217D36B00019314AB03EB85096F1EB8
:10A3080034AB012603EB8707002C54DA34AB03EB9C
:10A3180086062A4656F8C81C4046FFF75AFF35B04D
:10A32800BDE8F08F57F823C00CFA06F10A4340F84D
:10A33800042B01332CFA0EF2DAE714AB2A4639461D
:10A3480003EB8000FFF745FFD4E70FFA82FE5AF8C7
:10A35800C83C53F82EB034AB03EB8202013052F8FC
:10A36800803C0B44BBEB030334BF012200229B4516
:10A3780018BF11465CF8C82C42F82E30019B42B237
:10A388009A42E2DB731A5E42294614A85E41FFF73F
:10A3980041FF34AB03EB8503294653F8802C57F86B
:10A3A800803C43EAC27347F8803C4846013CFFF7CB
:10A3B80031FF24B2A8E734AB0020C6F1010C0146F6
:10A3C80003EB860A03EB8C0CD8E730B51C4691B03A
:10A3D800054693F900306846FFF72EFDD4F8AC30F7
:10A3E80069462846984711B030BD13460A46FFF71C
:10A3F800ECBF2DE9F04793F9006092B00446894616
:10A408001046314615461F46FFF7AAFE002840F0C1
:10A4180091803A46494602A8FFF7E7FF3B4602AA61
:10A4280021460AA8FFF7D1FF02A908463A46FFF7D6
:10A43800DCFF3B462A4649464846FFF7C6FF07F178
:10A4480004083A4629462846FFF7CFFF43462A46DE
:10A45800214620460096FFF7EAFE43462A4629464B
:10A4680028460096FFF7E3FE43462A46214628463B
:10A478000096FFF7F8FE3B462A4621462046FFF79E
:10A48800A4FF43462246214628460096FFF7CFFE02
:10A49800434600962A4621462046FFF7C8FE236811
:10A4A800DB074AD53346424621462046FFF764FC7F
:10A4B800314682462046FFF7ADFE06F18043013B58
:10A4C80054F8232042EACA7244F823203A46214627
:10A4D8002846FFF78AFF43460AAA294628460096D7
:10A4E800FFF7C1FE43460AAA294628460096FFF709
:10A4F800BAFE0AA9084643462A460096FFF7B3FE65
:10A508003B460AAA21462046FFF75FFF02AA4346B8
:10A51800104621460096FFF7A6FE324629462046F9
:10A52800FFF757FE49462846FFF753FE02A948465B
:10A53800FFF74FFE12B0BDE8F08731462046FFF71F
:10A5480069FEC3E72DE9F04115468AB004460E4678
:10A558001C22002103A802F0F7FF2F1D95F90080A7
:10A5680003232A46314620460293FFF73EFF3B4627
:10A5780002AA21462046CDF80080FFF774FE2B463C
:10A58800324621462046FFF720FFCDF800803B46A3
:10A5980005F1840221462046FFF749FE0AB0BDE8CE
:10A5A800F08100002DE9F042082288B0FFF711FE83
:10A5B800CB6A03930B6B04934B6B05938B6B0693DE
:10A5C800CB6B07930C4681460027134669466A46BB
:10A5D8006846CDE901770097FFF7CEFB08230546CB
:10A5E8006A4649464846FFF7C7FB236B0393636BEC
:10A5F8000493A36B0593E36B0544CDE906376A46DC
:10A60800082369466846FFF7B7FB082305446A46EE
:10A6180049464846FFF7B0FB236A0093636A0193F3
:10A62800A36A0293A36B0693E36B0793054408237D
:10A638006A4649464846CDE904770397FFF79CFBED
:10A64800636A0093A36AA26B0193E36A029304927C
:10A65800636BE26B0393CDE90523236A07932E18F6
:10A6680008236A4649464846FFF786FBE36A009393
:10A67800236B0193636B0293236A0693A36A079380
:10A68800351808236A4649464846CDE904770397B2
:10A69800FFF7A2FB236B0093636B0193A36B0293F9
:10A6A800E36B0393636A0693E36A07932E1A0823FE
:10A6B8006A4649464846CDE90477FFF78DFB636B48
:10A6C8000093A36B0193E36B0293236A0393636A7A
:10A6D8000493A36ACDE90537236B0793361A082339
:10A6E8006A4649464846FFF777FBA36B0093E36B3E
:10A6F800CDE90137636A0393A36A0493E36ACDE95A
:10A708000537636B0793361A08236A464946484655
:10A71800FFF762FB361A0E4C0FD436B908224946A9
:10A728002046FFF762FD01280FD00823224649463C
:10A738004846FFF751FB361AEFE7082322464946F9
:10A748004846FFF719FB3618F7D408B0BDE8F08281
:10A7580034D8070070B514468AB006460D461A4626
:10A76800214602A80193FFF740FE019B02AA314649
:10A778003046FFF72AFE02A9019B22460846FFF74A
:10A7880024FE019B02AA29462846FFF71EFE0AB0AE
:10A7980070BD2DE9F0478AB01446DDF848A055464B
:10A7A8001F4615F9046B0096804689462B460246DB
:10A7B800214602A8FFF757FD02A952460846FFF7AF
:10A7C80014FE534602AA41464046FFF7FEFD534693
:10A7D80002AA21462046FFF7F8FD2B464A4639468D
:10A7E80038460096FFF73FFD5246394602A8FFF764
:10A7F800FCFD02A92B46424608460096FFF733FDAA
:10A8080002A92B46224608460096FFF72CFD2B4648
:10A818004246214620460096FFF725FD534622462C
:10A8280049464846FFF7D1FD2B4602AA4146204635
:10A838000096FFF718FD5346224639463846FFF77B
:10A84800C4FD2B464A46394638460096FFF70BFDAD
:10A85800324602A92046FFF7BCFC0AB0BDE8F087E3
:10A868002DE9F0471F46B3F9023013F11F0448BF22
:10A8780003F13E04DD1D48BF03F10E056611EC101F
:10A88800944275B228BF144689462946FFF75DFCF5
:10A89800224649468046FFF75FFAB7F90230B3EB24
:10A8A800C40F4FEAC4021FD2D21A08EB8604002153
:10A8B800C2F12006A0450ED324372A464146384621
:10A8C800FFF793FC01280FD02B463A464046BDE8D7
:10A8D800F047FFF781BA54F8040D20FA02F30B434E
:10A8E800236000FA06F1E5E7BDE8F08770B5036874
:10A8F80013F001060546144605D013460A460146DC
:10A90800FFF73AFA064621462846FFF783FC46B188
:10A9180004F18042013A55F8223043F0004345F8EB
:10A92800223070BDF0B50F46A1B00646194638462C
:10A9380015461C46FFF714FC28B1304621B0BDE887
:10A94800F040FFF702BC224639466846FFF741FC53
:10A95800294608A8FFF73DFC10A82146FFF7F5FB9C
:10A96800012318A81093FFF7F0FB224608A96846B0
:10A97800FFF73BFC30B9224610A93046FFF729FC07
:10A9880021B0F0BD009BDA0709D421466846FFF7DD
:10A9980041FC2246294610A8FFF7A8FFE5E7089BD7
:10A9A800DB0707D4214608A8FFF734FC22462946CE
:10A9B80018A8F1E7002823461CDD08AA694668465E
:10A9C800FFF70AFA21466846FFF724FC224618A931
:10A9D80010A8FFF70AFC002805DA10A923462A4622
:10A9E8000846FFF7C9F910A9234618AA0846FFF731
:10A9F800F3F9CEE76A4608A8FFF7EEF9214608A85A
:10AA0800FFF708FC224610A918A8FFF7EEFB00285C
:10AA180005DA18A923462A460846FFF7ADF918A90A
:10AA2800234610AA0846FFF7D7F9BFE70048704742
:10AA380030D807002DE9F04F2DED028BEBB00D4615
:10AA4800769E03901946B6F9023096F9004013F144
:10AA58001F0848BF03F13E0848F3471808F1FF3BB9
:10AA680022AB002743F82B706AAB03EB8B034AA891
:10AA780043F8807C43F8607C924696F90120FFF702
:10AA88006BF996F9012052A81144FFF765F92146A0
:10AA98004AA8FFF765FB8146002840F0278152A8A5
:10AAA800FFF75EFB0290002840F0228106F124099E
:10AAB80042464AA94846FFF798FB012840F01A8108
:10AAC800424652A94846FFF790FB0128049040F0FF
:10AAD80011810AAF43464A461AA8FFF723FF029B93
:10AAE80047F82B305246294638463346FFF7B8FE1A
:10AAF800394638464B461AAACDF80080FFF7C7FBFF
:10AB08005AAD4B461AAA4AA912A8CDF80080FFF7F9
:10AB1800BEFB224628460399FFF75BFBA30005937B
:10AB2800039B05EB840A03EB840106F1440B5046B2
:10AB3800FFF74FFB594632A8FFF74BFBA3000BEB7F
:10AB480003013AA8FFF745FB331D294632AA1AA884
:10AB5800009408EE103AFFF786FB53462A463AA9B6
:10AB680032A80096FFF715FE1AA9084618EE102A13
:10AB78002346FFF7D7FE1AAA514628463346FFF761
:10AB8800E9FD029BCDE9063B039B41463846CDE9EA
:10AB98000835FFF7FEFA4146834612A8FFF7F9FA8F
:10ABA8005845B8BF584685B2691E09B23846039160
:10ABB800FFF7E5FA0399071E12A818BF0127FFF748
:10ABC800DEFA002814BF022000200DF1180A0743FE
:10ABD80022465AF8271022A8FFF7FBFA0DF1A80B16
:10ABE800A30019445846FFF7F4FA1AA82146FFF7BC
:10ABF800ACFA049B0360023D22AB2DB2039382465C
:10AC0800002D26DA18EE102A234651465046FFF743
:10AC180089FE0398334652465946FFF79BFD039930
:10AC280042464846FFF7E1FA012804D043464A461F
:10AC38000846FFF7D1F8013C64B24AAA23064AD570
:10AC4800029BB3FA83F040096BB0BDEC028BBDE800
:10AC5800F08F33465246D6F8A47003985946B84741
:10AC680029460AA8FFF78BFA2946071E12A818BF1B
:10AC78000127FFF784FA002814BF022000200743A9
:10AC880006AB53F8271019B3224632A8FFF7A1FAEA
:10AC9800059B3AA81944FFF79CFA014633465246E9
:10ACA80032A8FFF757FD18EE103A0399009432AA1C
:10ACB80042A8FFF7D8FA039A00965B463AA932A849
:10ACC800FFF767FD334642AA51465046FFF77DFB22
:10ACD800013D2DB294E7039B52F8241053F8243019
:10ACE8004B40029919430291013CA7E73846ABE76C
:10ACF8004846A9E70298A7E7008800F001007047D6
:10AD080041DF7047014B01221A7070470460002030
:10AD1800BFF34F8F0549064BCA6802F4E06213433C
:10AD2800CB60BFF34F8F00BFFDE700BF00ED00E031
:10AD38000400FA05024B034800221A7001F03ABCDD
:10AD48000460002019AD0700042810B5044609D88E
:10AD5800022811D816D00D4B1B68B3B12046BDE8A8
:10AD680010401847831F012BF5D8094B09480022CA
:10AD78001A7001F01FFCEEE707494FF4701000F05D
:10AD8800F5F9E8E701F05EFBE5E710BD0860002093
:10AD98000460002019AD07003DAD07000020704792
:10ADA80038B5554B554A18604FF0A0430020C3F8FA
:10ADB800402701F015FC0446002840F0978000F079
:10ADC800ABFA012800F08D80022800F0918000285D
:10ADD80040F08C804FF08043D3F8004414F4803462
:10ADE80036D04FF48032C3F800240446444D2B6A11
:10ADF800012B3BD04FF4701400F028FB414A20216E
:10AE08001820FDF7D5FA08B1FEF789FF4FF0804307
:10AE1800D3F81C2502F0F902B12A02BFD3F81C2589
:10AE280002F04E02C3F81C25FFF7B8FF00285DD1D9
:10AE38002046354900F09AF9344800F0D5FC00283E
:10AE480054D100F029FBFDF73BFBFFF759FFF8E76A
:10AE5800D3F8202502F0F902A92A03BFD3F8202548
:10AE680002F05602C3F820250124BFE74FF44053EF
:10AE78005A68274B9A4209D001F064FCAA69014636
:10AE880094B1244801F038FF90B9B3E76A6B1CB954
:10AE980095F86032012BEFD01F484FF4805101F034
:10AEA8002BFF0028E8D1A5E795F8A132012BE8D1BE
:10AEB8004FF0A043D3F81035DB039BD54FF0804308
:10AEC800D3F81C3503F0F903B12B93D001F0E8FB5C
:10AED80060B9124B1870124801F06CFB00F024F8AE
:10AEE80004E00E4B0F481C7001F064FB032038BDD2
:10AEF8004FF4A02480E700BF086000200C00030086
:10AF0800D4770020E45B00203DAD070051AD070079
:10AF1800DBE5B151757A0020347A00200460002006
:10AF28000DAD070019AD070008B5074B4FF0FF320C
:10AF3800C3F88020C3F8802101F0AAF8BDE80840D2
:10AF48004FF4805000F032B800E100E080F3088848
:10AF58000847F0B5C1F30B0434BBB0F5FE2F23D876
:10AF68000139090B020B01EB103101264FF080402B
:10AF7800914201D22046F0BD02F01F03550906FA9E
:10AF880003F3032D05D8DFE805F00206090CC0F825
:10AF980000360132ECE7C0F80436FAE7C0F810369C
:10AFA800F7E7C0F81436F4E70724E3E710B50446DA
:10AFB8001448C0F5FE21FFF7CCFF08B1FEF7AFFE3D
:10AFC80001F0C0FB104B9B6903F6FF7323F47F630A
:10AFD80023F00F0319180020FFF7BBFF08B1FEF795
:10AFE8009EFEEFF305830023D4E9000183F3148860
:10AFF80083F3108883F3118883F31388BDE8104026
:10B00800FFF7A4BF00800700D47700201FB51849B8
:10B018000B7853BB4FF08043A024D3F81824D203F5
:10B028005CBF01229A60134B0022C3F80021D3F8B9
:10B03800000103900398C3F84021D3F8400102901F
:10B048000298C3F84421D3F84401019001980A48B2
:10B0580080F82443102444600220C3F80825012204
:10B068009A601A60C3F804030A7004B010BD00BFE8
:10B07800106000200040024000E100E037B56FF0AA
:10B088007F42154C057BD4F804358A4228BF0A460E
:10B09800891A13444A1E942A23F07F4305F5A8729F
:10B0A8009BBF963B96314160416044F822300B4B80
:10B0B8004FF4F86043F001039847094BAA00134482
:10B0C80000221A601B680193019B4FF48033AB4048
:10B0D800C4F8043303B030BD00400240E0D8070094
:10B0E800404102401C4BD3F804212DE9F34152B1F1
:10B0F8001A490A6801320A600022C3F80421D3F809
:10B1080004310093009B164C164DDFF84C80164E08
:10B1180000272B6873B12F602B68227B0193019B5A
:10B128004FF480339340C8F80833616851B1204622
:10B13800FFF7A4FF0435B54204F11004E9D102B0C9
:10B14800BDE8F081A16811B12046FFF797FF236899
:10B15800002BEFD09847EDE7004002400C6000203C
:10B168007C590020404102404841024070B50B4BD9
:10B178001D682A7B4FF480339340094A0E46C2F873
:10B188000833044640B1FFF741FF2E6021462846A8
:10B19800BDE87040FFF772BF70BD00BF9C5900202A
:10B1A8000040024070B5074B1D6804460E46A86073
:10B1B800FFF72CFF2E6021462846BDE87040FFF7B8
:10B1C8005DBF00BFA0590020014B01221A707047D3
:10B1D800116000202DE9F74F06468846A8EB0605C2
:10B1E8002D0B02F6FF77144600F030F9082D28BF22
:10B1F80008252B03DFF868B001933F0B0CB92346F1
:10B2080029E0BD422CBFBA46AA464FF0000251467B
:10B21800304634BFDDF80490A14600F003FF034632
:10B22800C8B909F1030222F003024146304600F092
:10B23800EBFE034678B9DBF830304B44CBF83030BE
:10B2480001F0BEF9A7EB0A07A4EB09044E44C84471
:10B2580003460028D2D0184603B0BDE8F08F00BFDF
:10B26800D477002010B501F091FA124A916C01F5DB
:10B2780000535C68104B9C4218D1D2E90C329342BF
:10B2880016D0884204D1BDE81040002001F098B9DA
:10B29800D21A02F6FF7222F47F6222F00F021944DA
:10B2A8001844FFF797FF0028EDD010BD0320FCE7F6
:10B2B8000020FAE7D4770020DBE5B15170B5144ED1
:10B2C800F36A756AB46CAC2B1AD1736B1C44ED1A13
:10B2D800F36AAC2B06D10F482A46A4F5804102F048
:10B2E80063F998B10B482A46214602F05DF968B126
:10B2F80000F0D2F829462046BDE8704000F0AABE0A
:10B30800002CE5D101F032FA0446E1E770BD00BF38
:10B31800D47700200080070070B5264CE36AAA2B7A
:10B3280038D005D8012B0BD0A52B2FD0002070BD0D
:10B33800AC2BFBD1FFF796FF50BBFFF7BFFF27E011
:10B34800A66C656A01F0FEF98642236B29D101F0EB
:10B35800F9F900222946FDF71BF9A36A984202BFB2
:10B368000123C4E90703A5610025134801F0E0F9AA
:10B37800124B134800221A7001F022F968B975B10E
:10B38800236A012B14BF01200220D0E7FFF76AFFD0
:10B398000125EAE7FFF792FFE6E70320C7E7012068
:10B3A800C5E7EA1AF1181844FFF714FF0028DBD1A3
:10B3B800CDE700BFD4770020F87700201160002087
:10B3C800D1B1070010B50024D4F8F83F013304D1F7
:10B3D800084940F6F870FEF723FBD4F8FC3F013328
:10B3E80007D1BDE810404FF4FC2140F6FC70FEF791
:10B3F80017BB10BD008007000A4AD2F800347BB1A1
:10B4080009480023D2F80815D940C90748BF03F5F1
:10B41800C07103F1010348BF42F82100072BF1D1A5
:10B42800704700BF000001403546526EFFF7E4BF89
:10B43800054B002282B0C3F80021D3F800310193F4
:10B44800019B02B0704700BF0000014038B50E4DA7
:10B458002B78BBB90D4BD3F800248AB1D3F8044537
:10B46800FFF7CAFF40F616539C42B8BF1C4608496E
:10B47800A4F54860FFF796FE064B4FF480321A6039
:10B4880001232B7038BD00BF12600020000001406E
:10B4980035B4070000E100E0034BD3F800340BB1EA
:10B4A800FFF7AABF704700BF000001404FF080536C
:10B4B800D3F83001421C04BF4FF0704393F8E00FFB
:10B4C800831F5842584170474FF0704393F8E02F5C
:10B4D800062A09D1D3F8E83FC3F30313033B042B2F
:10B4E80002D8024AD05C704700207047F5D80700A0
:10B4F800024AD2F80034002BFBD0704700E001402C
:10B5080010B5FFF7D3FF40B14FF08053944AD3F8FA
:10B518002433C3F30423C2F84035FFF7D5FF10B135
:10B52800904B914A5A67FFF7C1FF48B14FF08053DB
:10B538004FF08042D3F84432C3F34233C2F83C356B
:10B54800FFF7C2FF30B1894AD2F8FC3023F080738C
:10B55800C2F8FC30FFF7AAFF40B14FF08043002249
:10B56800C3F80C21C3F81021C3F83825FFF7ACFF46
:10B5780020B14FF080430322C3F8A025FFF7A4FFB2
:10B5880060B17B4B0522C3F810260122C3F8882638
:10B598000022C3F818263F22C3F814264FF0805320
:10B5A800D3F83021511C09BF4FF07043D3F8343120
:10B5B80093F8E02FD3F8E83F08BFC3F30313062A34
:10B5C8004DD1033B042B03D86A4AD35C002B46D0E9
:10B5D8004FF08052684BD2F80414C3F82015D2F803
:10B5E8000814C3F82415D2F80C14C3F82815D2F897
:10B5F8001014C3F82C15D2F81414C3F83015D2F867
:10B608001814C3F83415D2F81C14C3F84015D2F82E
:10B618002014C3F84415D2F82414C3F84815D2F8F6
:10B628002814C3F84C15D2F82C14C3F85015D2F8C6
:10B638003014C3F85415D2F83414C3F86015D2F88E
:10B648003814C3F86415D2F83C14C3F86815D2F856
:10B658004014C3F86C15D2F84424C3F87025FFF7DA
:10B6680025FF48B14FF080534FF08042D3F858324D
:10B6780003F04F03C2F8E43EFFF718FF48B14FF05C
:10B688008043D3F80024D20744BF6FF00102C3F807
:10B6980000244FF08053D3F83021062A0ED1D3F876
:10B6A8003431033B042B02D8344AD35C33B1344AD7
:10B6B800D2F83C3743F48063C2F83C372B4AD2F8BF
:10B6C800883043F47003C2F88830BFF34F8FBFF35C
:10B6D8006F8F4FF08053D3F83021062A0FD1D3F85B
:10B6E8003431033B042B02D8264AD35C3BB14FF0DC
:10B6F8001023D3F808224FF08043C3F858254FF0A1
:10B708001023D3F80022002A03DBD3F80432002BDD
:10B7180022DA1D4901234FF01020C1F80435152401
:10B72800FFF7E6FEC0F80042FFF7E2FEC0F8044269
:10B73800FFF7DEFE0023C1F80435FFF7D9FEBFF39B
:10B748004F8F0A49114BCA6802F4E0621343CB6079
:10B75800BFF34F8F00BFFDE70D4B0E4A1A6010BDB7
:10B768000030014000C007400DF0ADBA00ED00E028
:10B7780000500040E6D8070000C00040EBD80700A2
:10B7880000100040F0D8070000E001400400FA056E
:10B79800A45900200090D00313681F2B10B514463D
:10B7A80007D900220830FDF76AFB08B92023236077
:10B7B80010BD48F21450FBE70830FDF73DBB0830D8
:10B7C800FDF70ABB831F012B10B5044602D80020E1
:10B7D80000F096FF034B1B681BB12046BDE81040E4
:10B7E800184710BD1460002008B5074B18600020EA
:10B7F800FFF7E8FF054800F06BFF20B9BDE80840F7
:10B80800024800F0D3BD08BD14600020CDB7070082
:10B818006CDF70476DDF704772DF704773DF70470A
:10B8280074DF704775DF704776DF70477ADF7047DF
:10B838007CDF70477DDF70477FDF704786DF7047AA
:10B848008FDF704790DF7047A8DF7047AADF704727
:10B85800ADDF7047AEDF7047B0DF7047B1DF7047CC
:10B86800B5DF704762DF704766DF704713DF7047E8
:10B8780001460148FCF7ABBF0CD6070070B518228B
:10B888008CB000210DEB020001F05EFE2823089326
:10B8980016231E4CADF806300023CDE9033305937B
:10B8A8000223062223702371592301250926A27039
:10B8B80063710322FE236570E270A3710DF1060126
:10B8C800A0198DF818508DF82D500294ADF80C6021
:10B8D800FFF7B0FFB8B9BDF8063026725A19E27101
:10B8E800BDF80C200A4C134402A906AA2046ADF85C
:10B8F8000C30FFF791FF30B92078FFF791FF2078DF
:10B908002946FFF78BFF0CB070BD00BF9670002072
:10B91800A8590020154938B50B68024613F00100F4
:10B9280022D0134882421ED0124A10884FF6FF7266
:10B93800904213D043F004030B601321FFF774FF08
:10B9480090B90D4DC82445F001054FF47A40A84739
:10B95800013CFAD1BDE8384001F0A4BC074B187887
:10B96800FFF75EFFF6E7002038BD00BFB870002083
:10B97800F8D50700AA590020E0DA0700A8590020E6
:10B98800F0B50388232B8BB0044635D80F2B04D889
:10B99800012B00F0F7800BB0F0BD103B132BFAD849
:10B9A80001A252F823F000BF31BA07004FBA0700CE
:10B9B8009FB9070031BB070071BC07009FB907009A
:10B9C8009FB907009FB907009FB907009FB90700F3
:10B9D8007FBC07009FB907009FB907009FB9070000
:10B9E8009FB907005BBB07009FB9070069BB070049
:10B9F8009FB9070017BB0700503B9AB2062ACAD85E
:10BA0800062BC8D801A252F823F000BF7BBA070062
:10BA180099BB07007FBC07009FB907009FB90700C3
:10BA2800D3BA070079BB0700964D83882B80964BC5
:10BA38001B680BB101209847944928880BB0BDE8D2
:10BA4800F040FFF7EFBE8F4B4FF6FF721A80904B16
:10BA58001B685A0704D4FFF711FF08B1FEF75FF916
:10BA6800894B1B68002B96D002200BB0BDE8F04034
:10BA78001847884EE288B3889A428CD18648FCF7EA
:10BA880082FE0546002886D0228A04F1120101F0C0
:10BA980025FD1822002104A801F056FD08238DF881
:10BAA80010307E4B06937E4B0596CDE9073504A8EA
:10BAB800238AADF8243000F06FFC00283FF46BAF08
:10BAC80075482946FCF783FE65E7E188F6291CD806
:10BAD800CB1E9B070DD0CB1F9BB2013B5A4202F0F5
:10BAE800030203F0030301F1FF3158BF5342C91A9F
:10BAF80089B2644B1888FFF7B3FE00283FF44BAFB8
:10BB08000BB0BDE8F040FEF70AB9F721F1E70022D3
:10BB1800808804A9CDE90422FFF794FE00283FF4A9
:10BB28003AAFFEF7FCF836E7564C02230493208818
:10BB380002AB04AA42F605210593FFF789FE08B176
:10BB4800FEF7EDF8002320881A468521FFF774FEDA
:10BB5800E4E74C4B00F108011888FFF763FECCE7D7
:10BB6800002304A98088ADF81030FFF769FED5E7F7
:10BB7800A379002B7FF40FAF424B13211888FFF7EE
:10BB880053FEBAE73F4B00211888FFF76DFEB4E774
:10BB9800A379002B3FF4FFAE022B7FF4FCAE3D4DA2
:10BBA8002189AA8991427FF4F6AEA27B012A7FF40B
:10BBB800F2AE4FF480320592228A324EADF8182048
:10BBC800628AADF81A2004F11402079201AF298A9B
:10BBD8003088049302AA02930397FFF739FE60B9ED
:10BBE8003846FFF789F840B940F2FD133088ADF8C0
:10BBF800143004A9FFF730FECDE6002304A93088ED
:10BC0800ADF81430FFF728FE014600287FF4C3AED4
:10BC1800182204A801F098FC237D204A8DF81030E2
:10BC2800022B0595069218D0062B10D0012B10D1A7
:10BC38001C4B1A881C4B1A80637DD4F81620089375
:10BC4800012B099205D1194800F05AFD01E0637DE6
:10BC5800089304A800F0A0FB9DE6124AB4F815303A
:10BC68001380114A1380F4E700231A461946808886
:10BC7800FFF7E4FD41E70023A0881A461946FFF7BD
:10BC8800EDFD3AE7AA590020BC700020E6DA07006B
:10BC9800B8700020827000200CD60700F9BC07009D
:10BCA80079B80700C0700020C2700020F8D50700DE
:10BCB8007FB50023CDF80B308DF80F300A4BADF867
:10BCC80006109B89ADF8083001238DF80A300DF174
:10BCD8000603CDE90430054B02A91888FFF7BAFD21
:10BCE80007B05DF804FB00BF82700020AA5900204D
:10BCF80010B5044686B000210D2202A8019101F07A
:10BD080023FC2378082B0BD1364A37491388098836
:10BD1800013B9BB21380D9B1D3B90323118023709F
:10BD2800627823788DF805306021012A8DF8041097
:10BD38008DF806200ED00B2A12D100F081F98DF86B
:10BD48000700002000F076F9042101A8FFF7B0FFF2
:10BD580006B010BD062B05D0082B29D0032B27D001
:10BD68000321F2E7E1688DF80710D4E90123080AF6
:10BD78008DF80800080C090E8DF80A10110A8DF8C4
:10BD88000B208DF80C10110C120E8DF80E201A0ACB
:10BD98008DF80F308DF810201A0C1B0E8DF80D1031
:10BDA8008DF809008DF811208DF812300F21CCE79D
:10BDB800D4E90123110A8DF807208DF80810110C19
:10BDC800120E8DF80A201A0A8DF80B308DF80C2007
:10BDD8001A0C1B0E8DF809108DF80D208DF80E30F9
:10BDE8000B21B2E7C2700020C07000202DE9F0419D
:10BDF8003C4B94B005464FF6FF721A8001204FF66F
:10BE080059632A4602A98DF80A00ADF80830FFF7F1
:10BE18001BFD0446002861D1334B04AA03F1100727
:10BE2800164618685968144603C40833BB422246AC
:10BE3800F7D1A91C3046FFF715FD044600284DD15F
:10BE480001461C220DA801F07FFB9DF834300C94AC
:10BE580043F004038DF834300223ADF80C30AB788E
:10BE68008DF80E3003238DF80630F423CDE90A440B
:10BE7800ADF82C302B464FF4885833F8040BADF846
:10BE8800048003AF01AE08AA0DA908970996FFF729
:10BE9800DDFC044610BB01461C220DA801F054FB32
:10BEA80018238DF834300123ADF80C30AB788DF8B9
:10BEB8000E3013238DF806301723CDE90A44ADF868
:10BEC8002C302B4608AA33F80C0B0C940DA9CDE99D
:10BED8000876ADF80480FFF7B9FC0446204614B094
:10BEE800BDE8F081AA590020D0DA070030B5324CFD
:10BEF800236813F0010585B05BD1304B18603048DA
:10BF0800FCF72AFC029500F0B6F800284FD12D481E
:10BF1800FFF7ACFC00284AD101F086F9002846D189
:10BF280002A801F053FA002841D102A9012001F02A
:10BF380057FA00283BD102A801F0A4FA002836D10C
:10BF480000F09EFB30B1204800F08AFB236843F0E4
:10BF580002032360112302A88DF80430FFF75AFC6E
:10BF680028BB9DF8093002A801338DF80930FFF786
:10BF78004FFCE0B923689B074BBF134913498A69F3
:10BF8800072248BF043192B201A8FFF751FC70B9EB
:10BF98000F48FFF74BFC50B90E48FFF727FF30B9A1
:10BFA800FFF76CFC18B9236843F00103236005B060
:10BFB80030BD0020FBE700BFB8700020BC70002037
:10BFC8000CD607000080070018600020C8DA0700B8
:10BFD800E6DA07008270002043690BB1C068184791
:10BFE8007047000010B40549054C0022904218BF64
:10BFF800214604485DF8044BFCF703BC70D60700E3
:10C008009CD607006859002007B5009313460A46D6
:10C0180001460348FCF7F9FB03B05DF804FB00BFD9
:10C028006859002013460A4601460148FCF7F4BB4C
:10C0380068590020014B18700B207047C47000200D
:10C04800024B002218781A70704700BFC470002095
:10C0580018DF704730B585B0054610220C46684693
:10C06800002101F071FAA408684601950294FFF7CF
:10C07800EFFF05B030BD1FB50023CDE901330393B1
:10C08800684602230093FFF7E3FF05B05DF804FB61
:10C098004FF000534FF480521A60002070470000A0
:10C0A800014B06201B681847D07000200A2803D9C6
:10C0B8000B38C0B2FFF7BEBF7047000010B504468A
:10C0C80086B00020FCF7B0FB014638B1174A1821AA
:10C0D800204606B0BDE81040FCF78EB91822684625
:10C0E80001F032FA0423124A8DF80030114B116D19
:10C0F8001B68994212D1104B186800F061FF8DF847
:10C108000100FFF7D3FFD4E901138DF80100684659
:10C1180098470A4800F054FA06B010BD01238DF87C
:10C1280001306846D4E901139847F5E7C5C0070010
:10C13800D4770020C8700020CC700020A9C0070068
:10C14800F0B5044687B018220021684601F0FCF9D2
:10C1580023788DF8003001220C2B8DF8012000F295
:10C168000F819A4012F4AD7F15D1022B06D00C2B0B
:10C1780040F00681834B07201B689847D4E90113D8
:10C18800684698479DF80130012B00F0EE807D4B02
:10C1980005201B68E8E0062B7B4A01D0012B01D162
:10C1A800216911701178012904D0022953D0002384
:10C1B800137095E0013B072BE0D801A252F823F059
:10C1C800E9C1070085C1070053C2070027C207005D
:10C1D80085C107004DC2070085C1070001C20700DD
:10C1E800684B03201B689847606900F0D3FCFFF791
:10C1F8005DFF8DF80100C1E7A18A206900F0E2FC2B
:10C20800FFF754FF614B8DF80100DA6B1B6C02934A
:10C21800E3680192002BB1D020699847AEE75C49EA
:10C228005C4800F01DFDFFF741FF01288DF8010073
:10C23800A4D1002000F0C4F900289FD00A238DF86B
:10C2480001309BE74FF400730393504BDA6B1B6C80
:10C258000192029392E7013B072B8FD801A252F873
:10C2680023F000BF8DC2070085C1070043C3070044
:10C278004DC3070085C1070077C3070085C10700C4
:10C28800EDC2070000F0BEFC08B90823D7E76269D1
:10C298000AB90323D3E7C2F30B0333B13B4B3C4941
:10C2A8005B6D096813448B42F3D1B2F5805F01D905
:10C2B8000423C4E7354B3649586D096815188D4273
:10C2C800E3D85A64DA6C9A6418651863314B1B68B2
:10C2D800002201211844FFF7A5FE00283FF44EAFC5
:10C2E8000523ACE700F08EFC0028CED0274DA18AAC
:10C2F800D5E914329B1A6A6C0B449342C9D8254B72
:10C308002F6B1B68206905F148021F44FCF740F9B0
:10C31800E368A28A216906463846FFF775FE08B128
:10C32800E36879E7A38A2A6BAE641A442A632A6D04
:10C33800029613442B65019320E7144B9A6C0292E2
:10C348001B6DF8E7114BD3E91402596C821A8A4223
:10C358009BD19A6C5865002120465964DA64FFF72E
:10C36800ADFE084B1B680420984707B0F0BD074B8B
:10C378009A6C1B6D01934FF4805302920393FDE670
:10C3880002235CE7D0700020AC590020D47700204D
:10C39800C8700020CC70002083681BB1024A1821A5
:10C3A800FCF72AB80720704749C1070038B5054689
:10C3B800C0B10120FFF716FE044648B900F0DCFBC7
:10C3C80000F020FC30B9084B00201D60FFF732FE5A
:10C3D800204638BD0549064800F042FC0128F2D045
:10C3E8000324F5E70724F3E7D0700020C870002085
:10C3F800CC7000202DE9F04115464FF460720646D6
:10C4080088461F4601F0D0F828B915B90020BDE8C4
:10C41800F081A847FAE7002201213046FFF702FE23
:10C4280070B94FF460724146384601F057F82B4610
:10C438004FF4607239463046FFF7E6FD0028E5D034
:10C448000320E4E72DE9F0413F4C2368013362D033
:10C4580000225821201DFCF79BF827683A1A5742FA
:10C468005741DFF8F880394ED8F800502B6801336F
:10C4780066D000225821281DFCF78AF82B688342D1
:10C488004BD16C68012C0AD00022C32105F5187025
:10C49800FCF77EF8D5F85C42231A5C425C41002F19
:10C4A8003DD0294929484FF4607201F017F86CB162
:10C4B800D8F8004026485422211D01F00FF82548DD
:10C4C8004FF4327204F15C0101F008F87768012F2B
:10C4D80034D1214CA4F5E4750FCD0FC40FCD0FC492
:10C4E8000FCD0FC495E80F0084E80F0004F1100584
:10C4F800A4F5DC740FCC0FC594E80700002386F878
:10C50800603286F8E232F36986F8A17285E807009E
:10C51800C6F8A23210E00027A3E70024BFE72CB139
:10C52800D8F8001009484FF46072CDE707484FF477
:10C538006072002101F008F802237360BDE8F08101
:10C54800002FF3D00024ACE700F00700D4770020D8
:10C55800D877002030780020F87A0020B0590020E1
:10C5680070B50C4C054600225821201DFCF710F828
:10C5780000222060C32104F51870FCF709F82A4648
:10C58800C4F85C022146044B0448BDE87040FFF73C
:10C5980031BF00BFD47700205474002000F007009A
:10C5A80002460248024B0068FFF724BFB05900203A
:10C5B800D47000200149FFF7F3BF00BF00F0070067
:10C5C80038B505460020FFF7CBFF044618B90349E4
:10C5D8002846FFF7E5FF204638BD00BFD477002086
:10C5E80010B5FFF7FFFC044628B9FFF72BFF2046DC
:10C5F800FFF7E6FF00B1032010BD000010B5084C9E
:10C608004FF40072FF2104F15C0000F09DFF20222E
:10C61800002104F1380000F097FF0023236310BDC8
:10C62800D477002029DF704738B50C4D0446D5F87B
:10C63800643378B101330FD1002218210430FBF79D
:10C64800A7FF21462060072205F55970BDE838404C
:10C65800FFF7E8BF0E2038BD0820FCE700F0070010
:10C6680050B1064B03F11C0253F8041B40F8041B9D
:10C678009342F9D1002070470E20704764F30700F9
:10C6880010B5064C002218212046FBF781FF54F80C
:10C69800043C1B1A5842584110BD00BF68F30700FC
:10C6A80010B50A4CD4F82433D4F86423134001336A
:10C6B80009D04FF4FE20FDF79BF9C92221464FF41B
:10C6C800FE20FDF7C3F9002010BD00BFD47700207D
:10C6D800F8B5094F094CE41B0646E4080025A542B5
:10C6E80001D10020F8BD57F835303046984700286A
:10C6F800F8D10135F3E700BFF8D5070000D60700E9
:10C70800F8B5094E094CA41B0746E4080025043671
:10C71800A54201D10020F8BD56F835303846984773
:10C728000028F8D10135F3E7F8D5070000D607004F
:10C73800034A00230360436083601363704700BFAC
:10C74800D47700204FF44053074A5968914201BFFB
:10C75800986800F6FF7020F47F6020F00F0018BF83
:10C768004FF48050704700BFDBE5B15108B5FFF7C3
:10C77800E9FF054B9B69184400F6FF7020F47F60C1
:10C7880020F00F0008BD00BFD47700204FF4805080
:10C79800704700002DE9F74F1F46244BDFF894B08F
:10C7A8001B6ADFF8949001910446154600934FF0F8
:10C7B80000084FF4405AB8F1010F5FFA88F61AD012
:10C7C800022E24D0FFF7D2FF9DB1009B013B5942B6
:10C7D8005941A9EB0000A04201D3019BEBB1D1B9AB
:10C7E80008F10108B8F1030FE5D1A04216D20420E0
:10C7F80018E02946EDE7FFF7A5FF37B9DAF8041086
:10C80800B1EB0B0118BF0121E3E74146E1E7012144
:10C818004FF48050DDE7A042E9D316B10448FFF792
:10C8280087FF002003B0BDE8F08F00BFD477002059
:10C83800EC770020DBE5B1510050070090F8552057
:10C8480012F0FB0F07D190F8643023B1836ECBB19F
:10C858000B600120704712F0010303D090F85630A6
:10C8680003B1836D9207F2D590F85C20002AEED0D0
:10C87800054A006EC2F5FC22904201D80344E6E75F
:10C88800042070470F207047008007002DE9FF47FC
:10C898002F49304D8A6B304C304FDFF8D490DFF899
:10C8A800D4A06E465C313046FCF72AFD96E80F00AE
:10C8B80085E80F0000212A4B39704FF44772204653
:10C8C800C9F80010CAF80010EB6000F03DFE2549D9
:10C8D80022462846FCF7B1FF20B90027384604B0A5
:10C8E800BDE8F0873F78002FF7D094F86C3194F8C2
:10C8F80000801BB3B8F1000FEFD194F87231002B10
:10C90800EBD0DAF80020D9F800103046FCF7F8FC34
:10C9180096E80F0085E80F004FF4B272414604F51F
:10C92800BA7000F011FE104904F5BA722846FCF7F7
:10C9380084FF0028D1D004F5BA7406E0B8F1000FDE
:10C94800CBD0A379002BC8D00834084B1C60C5E7AE
:10C95800D4770020A07E0020847B0020807B0020EC
:10C9680081C9070058DA0700A4D907005C7F0020B6
:10C978007C7B0020787B00205B68DA680D4B9A424C
:10C9880030B50AD1D0E901320B48016811B90B4919
:10C998000C681CB10A4B00221A7030BD1A4413F9F6
:10C9A800015B002DA2EB0304F9DB03600C60044B70
:10C9B8000122F1E7A4D907007C7B0020787B0020C6
:10C9C800807B00204FF4405316495A688A4227D08A
:10C9D80000F500535B68A3EB010CDCF1000343EBAB
:10C9E8000C038A421AD100F500504168914215D1D2
:10C9F8004FF440531A78142A82BF5B690A4AB3FB82
:10CA0800F2F3027898BF0023142A83BF42690649CB
:10CA1800B2FBF1F200229B1A18BF01231846704797
:10CA28000023DEE7DBE5B15140420F0000B591B0CD
:10CA3800FDF7F6F8684608492022FDF724F96A460A
:10CA4800064907484023FDF743F8064B01221A70B0
:10CA580011B05DF804FB00BFF0D70700B07E0020DE
:10CA6800BCD70700547B0020F0B5A3B007460C469E
:10CA780015461E4678222023002104A8029300F0C0
:10CA880063FD002303931C4B1B780BB9FFF7CEFF04
:10CA98005CB367BB02AB0193184B00931849289B02
:10CAA800324604A8FDF7A2F818BB402D21D1154B3A
:10CAB800214604F140021C4651F8040B43F8040BCC
:10CAC8009142F9D10F482021FDF7E9F84023CDE93B
:10CAD80000430A4A029B0C4903A8FDF715F80028F1
:10CAE8000CBF0120052023B0F0BD1320FBE7162062
:10CAF800F9E70A20F7E700BF547B0020F87E002002
:10CB0800FCD80700187F0020B07E0020F0B5ABB03D
:10CB180004460D4616461F467822202300210CA8FD
:10CB2800039300F011FD114B1B780BB9FFF77EFF43
:10CB38002FB12146202204A8FDF79AF804AC03ABD4
:10CB48000B4F01930B49009733462A460CA8FDF773
:10CB58004DF848B920222146384600F025FDB0FAA4
:10CB680080F040092BB0F0BD0020FBE7547B00208B
:10CB7800557B0020FCD8070008B5044B986B08B11A
:10CB8800FFF784FE024B187008BD00BFD477002061
:10CB9800587F002010B5044658B1B0F5007F0AD878
:10CBA800064B00221A70FFF729FD054B01209C63F4
:10CBB80010BD0320FCE70420FAE700BF587F0020DF
:10CBC800D477002070B50E4C0646E06BA36B421874
:10CBD8009A420D4611D85C300A462044314600F08E
:10CBE8007DFCE36B04F140022B4429463046E363A5
:10CBF800FBF7CEFC2064012070BD0320FCE700BFDA
:10CC0800D4770020014B1878704700BF587F002068
:10CC180013B5104C94F86C21B2B194F8D802B4F85A
:10CC2800DA2204F5377104F5B8740B4B1B680093CE
:10CC38000A4B1B68FFF718FF012809D1201D02B015
:10CC4800BDE8104000F0C0B9114610460434ECE7C6
:10CC580002B010BD847B0020787B00207C7B002004
:10CC6800204BD3E90E329A422DE9F04106460D4693
:10CC780033D1DFF8788098F800704FB1FFF776FD70
:10CC8800194B306029461868BDE8F041FFF7D6BD5A
:10CC9800FFF7FCFD18B3FFF7BBFF01283760044618
:10CCA8002F6017D1104B29461868FFF7C7FD0128D8
:10CCB80004460FD103463A4628683946FFF76AFD0D
:10CCC80038B9FFF753FD88F8004030602046BDE8CA
:10CCD800F0810424FFF792FCF8E70824F6E705241E
:10CCE800F4E700BFD47700205C7F0020587F002045
:10CCF80001237230FFF70ABF13B5044608462378AC
:10CD08001146032B03D8DFE803F021050F18002094
:10CD180002B010BD0022D4F80140FBF739FC844270
:10CD280014BF00200120F3E70A4600230146601CD7
:10CD380002B0BDE81040FFF7E9BE0091034640226B
:10CD4800611C0020FFF790FE0128E9E70120DFE7DA
:10CD58002DE9F043A3B005460E461446002178227B
:10CD68001F4604A820239DF8AC800393DDF8A89003
:10CD780000F0EAFB41220021284600F0E5FBB6F866
:10CD88009430A34282BF442303FB046393F8968044
:10CD980085F80080B8F1030F1ED8DFE808F0090213
:10CDA800111F002249463846FBF7F2FBC5F801007F
:10CDB8004A4639462846FFF79FFF23B0BDE8F0836F
:10CDC80003AB01936B1C00930A494B463A4604A8EF
:10CDD800FCF70CFF0028EBD00020EEE744235C436F
:10CDE80033199A34B3F898203119681C00F076FB8F
:10CDF800DEE700BFFCD807002DE9F0476A4B1D6845
:10CE0800A4B004460F4690460A4601462846FFF756
:10CE18006FFF002800F0C58095F855603EBB4FF0C5
:10CE28000109CDE9007923463246294613A8FFF7C0
:10CE38008FFF002878D0B8F1000F64D0DFF86C813C
:10CE4800412213A908F2A12000F048FB6B68C8F83A
:10CE58002C90C8F82060C8F80830002239462046CF
:10CE6800FBF796FB514B0125C3E9097094E0412279
:10CE7800002102A800F068FB06F001094122002108
:10CE880013A806F0020600F05FFBB9F1000F3ED0D0
:10CE980004F50052464B5068D5F858A0984243D143
:10CEA8000AF5FF530AF6FF71C1F30B011F335B1A32
:10CEB8009168994238D34FF44053596881420CD154
:10CEC8001978102988BF1969137898BF0021102B89
:10CED8008CBF13690023994226D12046FFF772FDC3
:10CEE80000B10EB30123CDE900A300222346294651
:10CEF80002A8FFF72DFFB8B1AA6DA318BA1A4EB948
:10CF0800B8F1000F1AD1294B01255D6112E03A46AC
:10CF18002346F4E70021CDE9002113A84A46294613
:10CF2800FFF716FF0028EBD10525B8F1000F30D127
:10CF3800FFF764FB284624B0BDE8F087DFF86C8073
:10CF4800B9F1000F21D02046FFF73CFD18B108F1D8
:10CF58001800FFF7EDFB1748412202A900F0BEFABE
:10CF6800002E14BFAC23A523C8F82C30AB6DC8F82D
:10CF78003430002E3FF471AF0F48412213A900F05E
:10CF8800ADFA6B68C8F80C3067E7AA23C8F82C30EC
:10CF9800EFE70A48FFF7CCFBFFF730FB034B9C6435
:10CFA800C8E71725C1E700BF5C7F0020D4770020C1
:10CFB800DBE5B151347A0020B67A0020F8770020FA
:10CFC8000122FFF719BF000090F85420F0B503467E
:10CFD800002A4DD090F85500032849D893F86E20C0
:10CFE800032A43D11A7A002A42D0DA68342A41D176
:10CFF8004FF4405520496C681A8A8C421FD142B1BF
:10D008005969A9B1D2B203F110040021CEB2B242DB
:10D0180001D8122023E0AE8954F8047FB74201F109
:10D028000101F3D11A788AB9012818BF0F2016E038
:10D0380010B9012AEDD1F5E70128F3D1E9E712B1DA
:10D048005A69002AE5D11A78002AE2D001285B68DB
:10D058000A4A05D8906898428CBF10200120F0BD7C
:10D06800D068984234BF01201020F8E71420F6E772
:10D078000F20F4E71120F2E7DBE5B151D477002067
:10D0880038B1054B0360054B436001230372002050
:10D0980070470E20704700BFCFD00700A9D0070007
:10D0A80069B10B78022B0CD1022804D0032814BFD5
:10D0B80008201120704703230B70002070470E20B2
:10D0C80070470820704710B50C4681B10B78012BCA
:10D0D80006D00ED9033B012B94BF0820112010BDA8
:10D0E800FFF7A2FA0028FAD102232370F7E70E20EF
:10D0F800F5E70820F3E7000070B5134B134A0C213D
:10D10800D21AB2FBF1F2816911F8025C04462DB91A
:10D1180000690021914204D1012010E04FF0FF3056
:10D12800F7E71E68AE420CD1461C02D05E68864204
:10D1380007D19D68D4E90001D4E90223A8472060FB
:10D1480070BD01310C33E5E700D607000CD60700A7
:10D158001EF0040F0CBFEFF30880EFF30980FFF710
:10D16800CBBF00BF10DF704711DF704713B504460F
:10D1780009496846FBF77EFD019808B902B010BD61
:10D18800D0E900212046904718B16846FBF77AFDA0
:10D19800F2E71120F2E700BFF4DA070013B50446FE
:10D1A80007496846FBF766FD019B0BB902B010BD45
:10D1B8002046D3E9002190476846FBF763FDF3E773
:10D1C8000CDB0700084B9A6822B11A6822F4800227
:10D1D8001A607047054B4FF48002C3F88020BFF3F4
:10D1E8004F8FBFF36F8F7047C859002000E100E0F0
:10D1F8000B4991F81623EC2352091341DB0706D596
:10D20800084B9A683AB94FF480030B60704742F2B2
:10D218000200FCF784BD1A6842F480021A60704765
:10D2280000E100E0C8590020F7B5194F3C7864BB0D
:10D23800184E012520463570FFF798FF112821D098
:10D248002046FFF7ABFF144B8DF803401868019098
:10D258000DF10300FBF762F9104901A8FFF782FFFF
:10D268000446B0FA80F0400938709DF80300FBF7D7
:10D2780079F93CB90A4B34701C70FFF7B9FF28469E
:10D28800FFF78CFF204603B0F0BD0824FAE700BF83
:10D29800617F0020607F0020EEDA0700219D0700F3
:10D2A800627F0020F7B5154F3B781BB3144E012061
:10D2B8003070FFF75BFF11284FF000051CD00220EB
:10D2C800FFF76CFF0DF107008DF80750FBF726F903
:10D2D800FFF74AFF04469DF807003D70FBF742F947
:10D2E8002CB903203470FFF76DFFFFF757FF204676
:10D2F80003B0F0BD0824FAE72C46F8E7617F002068
:10D30800607F0020054B1B7833B1054B1B780BB1B0
:10D31800FFF7C8BFFFF788BF08207047607F00206D
:10D32800617F0020014B1878704700BF617F0020A3
:10D3380007B508496846FBF79DFC019B13B903B084
:10D348005DF804FBD3E9002090476846FBF79AFC98
:10D35800F3E700BF00DB0700FFF7EABF60DF7047B5
:10D3680069DF704761DF704730B5134DADF5017D5A
:10D378004FF4FA740DF1020103A8ADF80240FFF76B
:10D38800F1FF70B9294601A8FBF774FC029B002B3A
:10D39800F0D003A8D3E90021904701A8FBF772FC5D
:10D3A800F4E7052805D00DF5017DBDE83040FCF710
:10D3B800B6BC0DF5017D30BD18DB0700024B1B78AC
:10D3C8000BB1FFF7D1BF7047637F002018B1034B43
:10D3D8000360002070470E20704700BF6859002086
:10D3E800F0B5074685B00D46002947D00024244AE9
:10D3F8000A60CDE90144012606238DF8040001A93D
:10D408002020ADF8083003948DF80660FFF7A8FFD8
:10D418002A68039401A94020CDE901448DF80560EC
:10D42800FFF79EFFF7232A68039401A92320CDE97B
:10D438000144ADF806308DF80470FFF791FF2A68B3
:10D44800039401A93046CDE901448DF80460FFF743
:10D4580087FF4FF4B0632A68019301A9A120CDE9A1
:10D468000244FFF77DFF2A68039401A9A020CDE9B3
:10D478000144FFF775FF204605B0F0BD0E20FBE71D
:10D488006859002008B5FFF769FF10B9014B012260
:10D498001A7008BD637F00204BDF70471FB50E4C24
:10D4A80001A8FFF7F9FF70B9214602A8FBF7E2FBD4
:10D4B800039B002BF4D00198D3E90021904702A8E0
:10D4C800FBF7E0FBF4E7052804D004B0BDE8104002
:10D4D800FCF725BC04B010BD24DB070072B38446FA
:10D4E80090EA01039B0721D1830709D011F8013B7A
:10D4F80000F8013B013A20D08307F7D100E08446C9
:10D50800202A0AD32DE9F007B1E8F807A0E8F807C0
:10D51800203A202AF8D2BDE8F007042A06D351F8A9
:10D52800043B40F8043B043A042AF8D22AB111F823
:10D53800013B00F8013B013AF9D16046704700BF52
:10D5480000220B0011001A0084465AB3830704D046
:10D5580000F8011B013AF9D124E0C9B241EA0121DE
:10D5680041EA0141202A11D3203A2DE9F0030B4664
:10D578000C460D460E460F4688468946A0E8FA0333
:10D58800203AFBD2BDE8F00320320BD0042A05D3A1
:10D5980040F8041B043A05D0042AF9D200F8011B0C
:10D5A800013AFBD160467047042A08D350F804CBEF
:10D5B8000B689C4506D1043A0431032AF6D8A2B177
:10D5C800D0F800C0086880EA0C0191FAA1F1B1FA1C
:10D5D80081F1B2EBD10F08D901F038012CFA01F230
:0ED5E800C840C0B2D1B2081A70470020704788
:08D5F800F5BE07001DB9070094
:0CD60000000000000300000089D00700BB
:10D60C003460002070700020817000203C6000208D
:04D61C00F400000016
:08D6200089B9070000000000B9
:08D62800E18907000000000089
:08D63000A18B070000000000BF
:10D63800C5D3070000000000A5D4070000000000C3
:08D64800958B070000000000B3
:10D650000000000000000000E1BF07000010000013
:04D6600000000800BE
:10D664000010000004000000010000007988070099
:10D674009D880700AD880700BD8807001189070051
:10D6840085880700898807008D880700001000003E
:10D694000400000001000000258A0700058A070035
:10D6A400F5890700318C0700E18B0700C989070061
:10D6B400CD890700D1890700982F8A429144377198
:10D6C400CFFBC0B5A5DBB5E95BC25639F111F15901
:10D6D400A4823F92D55E1CAB98AA07D8015B831243
:10D6E400BE853124C37D0C55745DBE72FEB1DE80EF
:10D6F400A706DC9B74F19BC1C1699BE48647BEEF1E
:10D70400C69DC10FCCA10C246F2CE92DAA84744AA8
:10D71400DCA9B05CDA88F97652513E986DC631A81E
:10D72400C82703B0C77F59BFF30BE0C64791A7D5FD
:10D734005163CA0667292914850AB72738211B2E85
:10D74400FC6D2C4D130D385354730A65BB0A6A766D
:10D754002EC9C281852C7292A1E8BFA24B661AA879
:10D76400708B4BC2A3516CC719E892D1240699D689
:10D7740085350EF470A06A1016C1A419086C371E02
:10D784004C774827B5BCB034B30C1C394AAAD84EE0
:10D794004FCA9C5BF36F2E68EE828F746F63A5781B
:10D7A4001478C8840802C78CFAFFBE90EB6C50A4AE
:10D7B400F7A3F9BEF27871C64800280000204000A3
:10D7C40035AA0700D193070077930700C79807008D
:10D7D4003799070057990700C39207008192070001
:10D7E400639807000000000011121314CEF8BB89DF
:10D7F400DCCBE8838E3C3D66F8A2F0F3F4863DE989
:10D8040044184C85C5DAA27DC9FBB0F2BC5842A6C7
:10D81400182BC34D5B8B19943B0723E363B321118E
:10D824000F4A1A1ECEDA9D24A878697508200001D3
:10D83400FFFFFFFFFFFFFFFFFFFFFFFF00000000F0
:10D84400000000000000000001000000FFFFFFFFD7
:10D85400512563FCC2CAB9F3849E17A7ADFAE6BC8E
:10D86400FFFFFFFFFFFFFFFF00000000FFFFFFFFC0
:10D8740096C298D84539A1F4A033EB2D817D037766
:10D88400F240A463E5E6BCF847422CE1F2D1176B01
:10D89400F551BF376840B6CBCE5E316B5733CE2BD4
:10D8A400169E0F7C4AEBE78E9B7F1AFEE242E34F03
:10D8B4004B60D2273E3CCE3BF6B053CCB0061D6540
:10D8C400BC86987655BDEBB3E7933AAAD835C65AC9
:10D8D400FBA307004DA50700ADA507000338FDD83D
:10D8E4007047000001010100000001010000000078
:10D8F4000101000000000000C7B70700C1B707001E
:10D90400A1B707002000000078000000000000001C
:10D914000100010000000000010000000000000000
:10D9240002000500010000004200000000000000A9
:10D9340000000000000000000000000000000000E3
:10D94400010011000100FFFF0100000000000000C1
:10D95400020017000200FEFF64010000A4D90700C2
:10D9640000000000000000000000000000000000B3
:10D9740001000100000000000100000000000000A0
:10D984000200050001000000220000000000000069
:10D994000000000000000000000000000000000083
:10D9A400010011000400FCFF04000000000000005E
:10D9B400020011000400FCFF04000000000000004D
:10D9C400030021000400FCFF04001000000000001C
:10D9D400040011000100FFFF01000000000000002E
:10D9E400050011000200FEFF04000000000000001A
:10D9F400060011000400FCFF040000000000000009
:10DA0400070011000400FCFF0400000000000000F7
:10DA1400080017000200FEFF2400000074D907006C
:10DA2400090010000100FFFF0100000054DA0700A4
:10DA34000A0027000200FEFF4400030014D9070077
:10DA440000000000000000000000000000000000D2
:10DA540000000000010017000400FCFF6801000042
:10DA640044D90700020017000400FCFFAC010000C9
:10DA740088DA070000000000000000000000000039
:10DA84000000000001000700000000006801000021
:10DA940044D907000200010000000000010000005A
:10DAA4000000000003000500010000004200000027
:10DAB4000000000000000000000000000000000062
